{
	"tenderly/bitcoincobra/tenderly/bitcoincobra/tenderly/project/Documents/DepositContract.sol": {
		"DepositContract": {
			"abi": [
				{
					"inputs": [],
					"stateMutability": "nonpayable",
					"type": "constructor"
				},
				{
					"anonymous": false,
					"inputs": [
						{
							"indexed": false,
							"internalType": "bytes",
							"name": "pubkey",
							"type": "bytes"
						},
						{
							"indexed": false,
							"internalType": "bytes",
							"name": "withdrawal_credentials",
							"type": "bytes"
						},
						{
							"indexed": false,
							"internalType": "bytes",
							"name": "amount",
							"type": "bytes"
						},
						{
							"indexed": false,
							"internalType": "bytes",
							"name": "signature",
							"type": "bytes"
						},
						{
							"indexed": false,
							"internalType": "bytes",
							"name": "index",
							"type": "bytes"
						}
					],
					"name": "DepositEvent",
					"type": "event"
				},
				{
					"inputs": [
						{
							"internalType": "bytes",
							"name": "pubkey",
							"type": "bytes"
						},
						{
							"internalType": "bytes",
							"name": "withdrawal_credentials",
							"type": "bytes"
						},
						{
							"internalType": "bytes",
							"name": "signature",
							"type": "bytes"
						},
						{
							"internalType": "bytes32",
							"name": "deposit_data_root",
							"type": "bytes32"
						}
					],
					"name": "deposit",
					"outputs": [],
					"stateMutability": "payable",
					"type": "function"
				},
				{
					"inputs": [],
					"name": "get_deposit_count",
					"outputs": [
						{
							"internalType": "bytes",
							"name": "",
							"type": "bytes"
						}
					],
					"stateMutability": "view",
					"type": "function"
				},
				{
					"inputs": [],
					"name": "get_deposit_root",
					"outputs": [
						{
							"internalType": "bytes32",
							"name": "",
							"type": "bytes32"
						}
					],
					"stateMutability": "view",
					"type": "function"
				},
				{
					"inputs": [
						{
							"internalType": "bytes4",
							"name": "interfaceId",
							"type": "bytes4"
						}
					],
					"name": "supportsInterface",
					"outputs": [
						{
							"internalType": "bool",
							"name": "",
							"type": "bool"
						}
					],
					"stateMutability": "pure",
					"type": "function"
				}
			],
			"devdoc": {
				"kind": "dev",
				"methods": {
					"deposit(bytes,bytes,bytes,bytes32)": {
						"params": {
							"deposit_data_root": "The SHA-256 hash of the SSZ-encoded DepositData object. Used as a protection against malformed input.",
							"pubkey": "A BLS12-381 public key.",
							"signature": "A BLS12-381 signature.",
							"withdrawal_credentials": "Commitment to a public key for withdrawals."
						}
					},
					"get_deposit_count()": {
						"returns": {
							"_0": "The deposit count encoded as a little endian 64-bit number."
						}
					},
					"get_deposit_root()": {
						"returns": {
							"_0": "The deposit root hash."
						}
					},
					"supportsInterface(bytes4)": {
						"details": "Interface identification is specified in ERC-165. This function  uses less than 30,000 gas.",
						"params": {
							"interfaceId": "The interface identifier, as specified in ERC-165"
						},
						"returns": {
							"_0": "`true` if the contract implements `interfaceId` and  `interfaceId` is not 0xffffffff, `false` otherwise"
						}
					}
				},
				"version": 1
			},
			"evm": {
				"assembly": "    /* \"tenderly/bitcoincobra/tenderly/bitcoincobra/tenderly/project/Documents/DepositContract.sol\":4651:9491  contract DepositContract is IDepositContract, ERC165 {... */\n  mstore(0x40, 0x80)\n    /* \"tenderly/bitcoincobra/tenderly/bitcoincobra/tenderly/project/Documents/DepositContract.sol\":5038:5308  constructor() public {... */\n  callvalue\n  dup1\n  iszero\n  tag_1\n  jumpi\n  0x00\n  dup1\n  revert\ntag_1:\n  pop\n    /* \"tenderly/bitcoincobra/tenderly/bitcoincobra/tenderly/project/Documents/DepositContract.sol\":5128:5139  uint height */\n  0x00\n    /* \"tenderly/bitcoincobra/tenderly/bitcoincobra/tenderly/project/Documents/DepositContract.sol\":5142:5143  0 */\n  dup1\n    /* \"tenderly/bitcoincobra/tenderly/bitcoincobra/tenderly/project/Documents/DepositContract.sol\":5128:5143  uint height = 0 */\n  swap1\n  pop\n    /* \"tenderly/bitcoincobra/tenderly/bitcoincobra/tenderly/project/Documents/DepositContract.sol\":5123:5301  for (uint height = 0; height < DEPOSIT_CONTRACT_TREE_DEPTH - 1; height++)... */\ntag_4:\n    /* \"tenderly/bitcoincobra/tenderly/bitcoincobra/tenderly/project/Documents/DepositContract.sol\":5184:5185  1 */\n  0x01\n    /* \"tenderly/bitcoincobra/tenderly/bitcoincobra/tenderly/project/Documents/DepositContract.sol\":4754:4756  32 */\n  0x20\n    /* \"tenderly/bitcoincobra/tenderly/bitcoincobra/tenderly/project/Documents/DepositContract.sol\":5154:5185  DEPOSIT_CONTRACT_TREE_DEPTH - 1 */\n  sub\n    /* \"tenderly/bitcoincobra/tenderly/bitcoincobra/tenderly/project/Documents/DepositContract.sol\":5145:5151  height */\n  dup2\n    /* \"tenderly/bitcoincobra/tenderly/bitcoincobra/tenderly/project/Documents/DepositContract.sol\":5145:5185  height < DEPOSIT_CONTRACT_TREE_DEPTH - 1 */\n  lt\n    /* \"tenderly/bitcoincobra/tenderly/bitcoincobra/tenderly/project/Documents/DepositContract.sol\":5123:5301  for (uint height = 0; height < DEPOSIT_CONTRACT_TREE_DEPTH - 1; height++)... */\n  iszero\n  tag_5\n  jumpi\n    /* \"tenderly/bitcoincobra/tenderly/bitcoincobra/tenderly/project/Documents/DepositContract.sol\":5235:5301  sha256(abi.encodePacked(zero_hashes[height], zero_hashes[height])) */\n  0x02\n    /* \"tenderly/bitcoincobra/tenderly/bitcoincobra/tenderly/project/Documents/DepositContract.sol\":5259:5270  zero_hashes */\n  0x21\n    /* \"tenderly/bitcoincobra/tenderly/bitcoincobra/tenderly/project/Documents/DepositContract.sol\":5271:5277  height */\n  dup3\n    /* \"tenderly/bitcoincobra/tenderly/bitcoincobra/tenderly/project/Documents/DepositContract.sol\":5259:5278  zero_hashes[height] */\n  0x20\n  dup2\n  lt\n  tag_7\n  jumpi\n  invalid\ntag_7:\n  add\n  sload\n    /* \"tenderly/bitcoincobra/tenderly/bitcoincobra/tenderly/project/Documents/DepositContract.sol\":5280:5291  zero_hashes */\n  0x21\n    /* \"tenderly/bitcoincobra/tenderly/bitcoincobra/tenderly/project/Documents/DepositContract.sol\":5292:5298  height */\n  dup4\n    /* \"tenderly/bitcoincobra/tenderly/bitcoincobra/tenderly/project/Documents/DepositContract.sol\":5280:5299  zero_hashes[height] */\n  0x20\n  dup2\n  lt\n  tag_9\n  jumpi\n  invalid\ntag_9:\n  add\n  sload\n    /* \"tenderly/bitcoincobra/tenderly/bitcoincobra/tenderly/project/Documents/DepositContract.sol\":5242:5300  abi.encodePacked(zero_hashes[height], zero_hashes[height]) */\n  add(0x20, mload(0x40))\n  dup1\n  dup4\n  dup2\n  mstore\n  0x20\n  add\n  dup3\n  dup2\n  mstore\n  0x20\n  add\n  swap3\n  pop\n  pop\n  pop\n  mload(0x40)\n  0x20\n  dup2\n  dup4\n  sub\n  sub\n  dup2\n  mstore\n  swap1\n  0x40\n  mstore\n    /* \"tenderly/bitcoincobra/tenderly/bitcoincobra/tenderly/project/Documents/DepositContract.sol\":5235:5301  sha256(abi.encodePacked(zero_hashes[height], zero_hashes[height])) */\n  mload(0x40)\n  dup1\n  dup3\n  dup1\n  mload\n  swap1\n  0x20\n  add\n  swap1\n  dup1\n  dup4\n  dup4\ntag_11:\n  0x20\n  dup4\n  lt\n  tag_13\n  jumpi\n  dup1\n  mload\n  dup3\n  mstore\n  0x20\n  dup3\n  add\n  swap2\n  pop\n  0x20\n  dup2\n  add\n  swap1\n  pop\n  0x20\n  dup4\n  sub\n  swap3\n  pop\n  jump(tag_11)\ntag_13:\n  0x01\n  dup4\n  0x20\n  sub\n  0x0100\n  exp\n  sub\n  dup1\n  not\n  dup3\n  mload\n  and\n  dup2\n  dup5\n  mload\n  and\n  dup1\n  dup3\n  or\n  dup6\n  mstore\n  pop\n  pop\n  pop\n  pop\n  pop\n  pop\n  swap1\n  pop\n  add\n  swap2\n  pop\n  pop\n  0x20\n  mload(0x40)\n  dup1\n  dup4\n  sub\n  dup2\n  dup6\n  gas\n  staticcall\n  iszero\n  dup1\n  iszero\n  tag_15\n  jumpi\n  returndatasize\n  0x00\n  dup1\n  returndatacopy\n  revert(0x00, returndatasize)\ntag_15:\n  pop\n  pop\n  pop\n  mload(0x40)\n  returndatasize\n  0x20\n  dup2\n  lt\n  iszero\n  tag_16\n  jumpi\n  0x00\n  dup1\n  revert\ntag_16:\n  dup2\n  add\n  swap1\n  dup1\n  dup1\n  mload\n  swap1\n  0x20\n  add\n  swap1\n  swap3\n  swap2\n  swap1\n  pop\n  pop\n  pop\n    /* \"tenderly/bitcoincobra/tenderly/bitcoincobra/tenderly/project/Documents/DepositContract.sol\":5209:5220  zero_hashes */\n  0x21\n    /* \"tenderly/bitcoincobra/tenderly/bitcoincobra/tenderly/project/Documents/DepositContract.sol\":5230:5231  1 */\n  0x01\n    /* \"tenderly/bitcoincobra/tenderly/bitcoincobra/tenderly/project/Documents/DepositContract.sol\":5221:5227  height */\n  dup4\n    /* \"tenderly/bitcoincobra/tenderly/bitcoincobra/tenderly/project/Documents/DepositContract.sol\":5221:5231  height + 1 */\n  add\n    /* \"tenderly/bitcoincobra/tenderly/bitcoincobra/tenderly/project/Documents/DepositContract.sol\":5209:5232  zero_hashes[height + 1] */\n  0x20\n  dup2\n  lt\n  tag_17\n  jumpi\n  invalid\ntag_17:\n  add\n    /* \"tenderly/bitcoincobra/tenderly/bitcoincobra/tenderly/project/Documents/DepositContract.sol\":5209:5301  zero_hashes[height + 1] = sha256(abi.encodePacked(zero_hashes[height], zero_hashes[height])) */\n  dup2\n  swap1\n  sstore\n  pop\n    /* \"tenderly/bitcoincobra/tenderly/bitcoincobra/tenderly/project/Documents/DepositContract.sol\":5187:5195  height++ */\n  dup1\n  dup1\n  0x01\n  add\n  swap2\n  pop\n  pop\n    /* \"tenderly/bitcoincobra/tenderly/bitcoincobra/tenderly/project/Documents/DepositContract.sol\":5123:5301  for (uint height = 0; height < DEPOSIT_CONTRACT_TREE_DEPTH - 1; height++)... */\n  jump(tag_4)\ntag_5:\n  pop\n    /* \"tenderly/bitcoincobra/tenderly/bitcoincobra/tenderly/project/Documents/DepositContract.sol\":4651:9491  contract DepositContract is IDepositContract, ERC165 {... */\n  dataSize(sub_0)\n  dup1\n  dataOffset(sub_0)\n  0x00\n  codecopy\n  0x00\n  return\nstop\n\nsub_0: assembly {\n        /* \"tenderly/bitcoincobra/tenderly/bitcoincobra/tenderly/project/Documents/DepositContract.sol\":4651:9491  contract DepositContract is IDepositContract, ERC165 {... */\n      mstore(0x40, 0x80)\n      jumpi(tag_1, lt(calldatasize, 0x04))\n      shr(0xe0, calldataload(0x00))\n      dup1\n      0x01ffc9a7\n      eq\n      tag_2\n      jumpi\n      dup1\n      0x22895118\n      eq\n      tag_3\n      jumpi\n      dup1\n      0x621fd130\n      eq\n      tag_4\n      jumpi\n      dup1\n      0xc5f2892f\n      eq\n      tag_5\n      jumpi\n    tag_1:\n      0x00\n      dup1\n      revert\n        /* \"tenderly/bitcoincobra/tenderly/bitcoincobra/tenderly/project/Documents/DepositContract.sol\":8815:9016  function supportsInterface(bytes4 interfaceId) override external pure returns (bool) {... */\n    tag_2:\n      callvalue\n      dup1\n      iszero\n      tag_6\n      jumpi\n      0x00\n      dup1\n      revert\n    tag_6:\n      pop\n      tag_7\n      0x04\n      dup1\n      calldatasize\n      sub\n      0x20\n      dup2\n      lt\n      iszero\n      tag_8\n      jumpi\n      0x00\n      dup1\n      revert\n    tag_8:\n      dup2\n      add\n      swap1\n      dup1\n      dup1\n      calldataload\n      not(0xffffffffffffffffffffffffffffffffffffffffffffffffffffffff)\n      and\n      swap1\n      0x20\n      add\n      swap1\n      swap3\n      swap2\n      swap1\n      pop\n      pop\n      pop\n      tag_9\n      jump\t// in\n    tag_7:\n      mload(0x40)\n      dup1\n      dup3\n      iszero\n      iszero\n      iszero\n      iszero\n      dup2\n      mstore\n      0x20\n      add\n      swap2\n      pop\n      pop\n      mload(0x40)\n      dup1\n      swap2\n      sub\n      swap1\n      return\n        /* \"tenderly/bitcoincobra/tenderly/bitcoincobra/tenderly/project/Documents/DepositContract.sol\":6059:8809  function deposit(... */\n    tag_3:\n      tag_10\n      0x04\n      dup1\n      calldatasize\n      sub\n      0x80\n      dup2\n      lt\n      iszero\n      tag_11\n      jumpi\n      0x00\n      dup1\n      revert\n    tag_11:\n      dup2\n      add\n      swap1\n      dup1\n      dup1\n      calldataload\n      swap1\n      0x20\n      add\n      swap1\n      0x0100000000\n      dup2\n      gt\n      iszero\n      tag_12\n      jumpi\n      0x00\n      dup1\n      revert\n    tag_12:\n      dup3\n      add\n      dup4\n      0x20\n      dup3\n      add\n      gt\n      iszero\n      tag_13\n      jumpi\n      0x00\n      dup1\n      revert\n    tag_13:\n      dup1\n      calldataload\n      swap1\n      0x20\n      add\n      swap2\n      dup5\n      0x01\n      dup4\n      mul\n      dup5\n      add\n      gt\n      0x0100000000\n      dup4\n      gt\n      or\n      iszero\n      tag_14\n      jumpi\n      0x00\n      dup1\n      revert\n    tag_14:\n      swap1\n      swap2\n      swap3\n      swap4\n      swap2\n      swap3\n      swap4\n      swap1\n      dup1\n      calldataload\n      swap1\n      0x20\n      add\n      swap1\n      0x0100000000\n      dup2\n      gt\n      iszero\n      tag_15\n      jumpi\n      0x00\n      dup1\n      revert\n    tag_15:\n      dup3\n      add\n      dup4\n      0x20\n      dup3\n      add\n      gt\n      iszero\n      tag_16\n      jumpi\n      0x00\n      dup1\n      revert\n    tag_16:\n      dup1\n      calldataload\n      swap1\n      0x20\n      add\n      swap2\n      dup5\n      0x01\n      dup4\n      mul\n      dup5\n      add\n      gt\n      0x0100000000\n      dup4\n      gt\n      or\n      iszero\n      tag_17\n      jumpi\n      0x00\n      dup1\n      revert\n    tag_17:\n      swap1\n      swap2\n      swap3\n      swap4\n      swap2\n      swap3\n      swap4\n      swap1\n      dup1\n      calldataload\n      swap1\n      0x20\n      add\n      swap1\n      0x0100000000\n      dup2\n      gt\n      iszero\n      tag_18\n      jumpi\n      0x00\n      dup1\n      revert\n    tag_18:\n      dup3\n      add\n      dup4\n      0x20\n      dup3\n      add\n      gt\n      iszero\n      tag_19\n      jumpi\n      0x00\n      dup1\n      revert\n    tag_19:\n      dup1\n      calldataload\n      swap1\n      0x20\n      add\n      swap2\n      dup5\n      0x01\n      dup4\n      mul\n      dup5\n      add\n      gt\n      0x0100000000\n      dup4\n      gt\n      or\n      iszero\n      tag_20\n      jumpi\n      0x00\n      dup1\n      revert\n    tag_20:\n      swap1\n      swap2\n      swap3\n      swap4\n      swap2\n      swap3\n      swap4\n      swap1\n      dup1\n      calldataload\n      swap1\n      0x20\n      add\n      swap1\n      swap3\n      swap2\n      swap1\n      pop\n      pop\n      pop\n      tag_21\n      jump\t// in\n    tag_10:\n      stop\n        /* \"tenderly/bitcoincobra/tenderly/bitcoincobra/tenderly/project/Documents/DepositContract.sol\":5912:6053  function get_deposit_count() override external view returns (bytes memory) {... */\n    tag_4:\n      callvalue\n      dup1\n      iszero\n      tag_22\n      jumpi\n      0x00\n      dup1\n      revert\n    tag_22:\n      pop\n      tag_23\n      tag_24\n      jump\t// in\n    tag_23:\n      mload(0x40)\n      dup1\n      dup1\n      0x20\n      add\n      dup3\n      dup2\n      sub\n      dup3\n      mstore\n      dup4\n      dup2\n      dup2\n      mload\n      dup2\n      mstore\n      0x20\n      add\n      swap2\n      pop\n      dup1\n      mload\n      swap1\n      0x20\n      add\n      swap1\n      dup1\n      dup4\n      dup4\n      0x00\n    tag_25:\n      dup4\n      dup2\n      lt\n      iszero\n      tag_27\n      jumpi\n      dup1\n      dup3\n      add\n      mload\n      dup2\n      dup5\n      add\n      mstore\n      0x20\n      dup2\n      add\n      swap1\n      pop\n      jump(tag_25)\n    tag_27:\n      pop\n      pop\n      pop\n      pop\n      swap1\n      pop\n      swap1\n      dup2\n      add\n      swap1\n      0x1f\n      and\n      dup1\n      iszero\n      tag_28\n      jumpi\n      dup1\n      dup3\n      sub\n      dup1\n      mload\n      0x01\n      dup4\n      0x20\n      sub\n      0x0100\n      exp\n      sub\n      not\n      and\n      dup2\n      mstore\n      0x20\n      add\n      swap2\n      pop\n    tag_28:\n      pop\n      swap3\n      pop\n      pop\n      pop\n      mload(0x40)\n      dup1\n      swap2\n      sub\n      swap1\n      return\n        /* \"tenderly/bitcoincobra/tenderly/bitcoincobra/tenderly/project/Documents/DepositContract.sol\":5314:5906  function get_deposit_root() override external view returns (bytes32) {... */\n    tag_5:\n      callvalue\n      dup1\n      iszero\n      tag_29\n      jumpi\n      0x00\n      dup1\n      revert\n    tag_29:\n      pop\n      tag_30\n      tag_31\n      jump\t// in\n    tag_30:\n      mload(0x40)\n      dup1\n      dup3\n      dup2\n      mstore\n      0x20\n      add\n      swap2\n      pop\n      pop\n      mload(0x40)\n      dup1\n      swap2\n      sub\n      swap1\n      return\n        /* \"tenderly/bitcoincobra/tenderly/bitcoincobra/tenderly/project/Documents/DepositContract.sol\":8815:9016  function supportsInterface(bytes4 interfaceId) override external pure returns (bool) {... */\n    tag_9:\n        /* \"tenderly/bitcoincobra/tenderly/bitcoincobra/tenderly/project/Documents/DepositContract.sol\":8894:8898  bool */\n      0x00\n        /* \"tenderly/bitcoincobra/tenderly/bitcoincobra/tenderly/project/Documents/DepositContract.sol\":8932:8956  type(ERC165).interfaceId */\n      0x01ffc9a700000000000000000000000000000000000000000000000000000000\n        /* \"tenderly/bitcoincobra/tenderly/bitcoincobra/tenderly/project/Documents/DepositContract.sol\":8917:8956  interfaceId == type(ERC165).interfaceId */\n      not(0xffffffffffffffffffffffffffffffffffffffffffffffffffffffff)\n      and\n        /* \"tenderly/bitcoincobra/tenderly/bitcoincobra/tenderly/project/Documents/DepositContract.sol\":8917:8928  interfaceId */\n      dup3\n        /* \"tenderly/bitcoincobra/tenderly/bitcoincobra/tenderly/project/Documents/DepositContract.sol\":8917:8956  interfaceId == type(ERC165).interfaceId */\n      not(0xffffffffffffffffffffffffffffffffffffffffffffffffffffffff)\n      and\n      eq\n        /* \"tenderly/bitcoincobra/tenderly/bitcoincobra/tenderly/project/Documents/DepositContract.sol\":8917:9009  interfaceId == type(ERC165).interfaceId || interfaceId == type(IDepositContract).interfaceId */\n      dup1\n      tag_33\n      jumpi\n      pop\n        /* \"tenderly/bitcoincobra/tenderly/bitcoincobra/tenderly/project/Documents/DepositContract.sol\":8975:9009  type(IDepositContract).interfaceId */\n      0x8564090700000000000000000000000000000000000000000000000000000000\n        /* \"tenderly/bitcoincobra/tenderly/bitcoincobra/tenderly/project/Documents/DepositContract.sol\":8960:9009  interfaceId == type(IDepositContract).interfaceId */\n      not(0xffffffffffffffffffffffffffffffffffffffffffffffffffffffff)\n      and\n        /* \"tenderly/bitcoincobra/tenderly/bitcoincobra/tenderly/project/Documents/DepositContract.sol\":8960:8971  interfaceId */\n      dup3\n        /* \"tenderly/bitcoincobra/tenderly/bitcoincobra/tenderly/project/Documents/DepositContract.sol\":8960:9009  interfaceId == type(IDepositContract).interfaceId */\n      not(0xffffffffffffffffffffffffffffffffffffffffffffffffffffffff)\n      and\n      eq\n        /* \"tenderly/bitcoincobra/tenderly/bitcoincobra/tenderly/project/Documents/DepositContract.sol\":8917:9009  interfaceId == type(ERC165).interfaceId || interfaceId == type(IDepositContract).interfaceId */\n    tag_33:\n        /* \"tenderly/bitcoincobra/tenderly/bitcoincobra/tenderly/project/Documents/DepositContract.sol\":8910:9009  return interfaceId == type(ERC165).interfaceId || interfaceId == type(IDepositContract).interfaceId */\n      swap1\n      pop\n        /* \"tenderly/bitcoincobra/tenderly/bitcoincobra/tenderly/project/Documents/DepositContract.sol\":8815:9016  function supportsInterface(bytes4 interfaceId) override external pure returns (bool) {... */\n      swap2\n      swap1\n      pop\n      jump\t// out\n        /* \"tenderly/bitcoincobra/tenderly/bitcoincobra/tenderly/project/Documents/DepositContract.sol\":6059:8809  function deposit(... */\n    tag_21:\n        /* \"tenderly/bitcoincobra/tenderly/bitcoincobra/tenderly/project/Documents/DepositContract.sol\":6358:6360  48 */\n      0x30\n        /* \"tenderly/bitcoincobra/tenderly/bitcoincobra/tenderly/project/Documents/DepositContract.sol\":6341:6347  pubkey */\n      dup8\n      dup8\n        /* \"tenderly/bitcoincobra/tenderly/bitcoincobra/tenderly/project/Documents/DepositContract.sol\":6341:6354  pubkey.length */\n      swap1\n      pop\n        /* \"tenderly/bitcoincobra/tenderly/bitcoincobra/tenderly/project/Documents/DepositContract.sol\":6341:6360  pubkey.length == 48 */\n      eq\n        /* \"tenderly/bitcoincobra/tenderly/bitcoincobra/tenderly/project/Documents/DepositContract.sol\":6333:6403  require(pubkey.length == 48, \"DepositContract: invalid pubkey length\") */\n      tag_35\n      jumpi\n      mload(0x40)\n      0x08c379a000000000000000000000000000000000000000000000000000000000\n      dup2\n      mstore\n      0x04\n      add\n      dup1\n      dup1\n      0x20\n      add\n      dup3\n      dup2\n      sub\n      dup3\n      mstore\n      0x26\n      dup2\n      mstore\n      0x20\n      add\n      dup1\n      data_c3b50b094eada99b5a9dfa8cfadfa82355edd40e0591c544071d0112172c4c5e\n      0x26\n      swap2\n      codecopy\n      0x40\n      add\n      swap2\n      pop\n      pop\n      mload(0x40)\n      dup1\n      swap2\n      sub\n      swap1\n      revert\n    tag_35:\n        /* \"tenderly/bitcoincobra/tenderly/bitcoincobra/tenderly/project/Documents/DepositContract.sol\":6454:6456  32 */\n      0x20\n        /* \"tenderly/bitcoincobra/tenderly/bitcoincobra/tenderly/project/Documents/DepositContract.sol\":6421:6443  withdrawal_credentials */\n      dup6\n      dup6\n        /* \"tenderly/bitcoincobra/tenderly/bitcoincobra/tenderly/project/Documents/DepositContract.sol\":6421:6450  withdrawal_credentials.length */\n      swap1\n      pop\n        /* \"tenderly/bitcoincobra/tenderly/bitcoincobra/tenderly/project/Documents/DepositContract.sol\":6421:6456  withdrawal_credentials.length == 32 */\n      eq\n        /* \"tenderly/bitcoincobra/tenderly/bitcoincobra/tenderly/project/Documents/DepositContract.sol\":6413:6515  require(withdrawal_credentials.length == 32, \"DepositContract: invalid withdrawal_credentials length\") */\n      tag_36\n      jumpi\n      mload(0x40)\n      0x08c379a000000000000000000000000000000000000000000000000000000000\n      dup2\n      mstore\n      0x04\n      add\n      dup1\n      dup1\n      0x20\n      add\n      dup3\n      dup2\n      sub\n      dup3\n      mstore\n      0x36\n      dup2\n      mstore\n      0x20\n      add\n      dup1\n      data_747182c86d19950fc1e3554e7b3e3a1972fcfdcf01419aa5598a57f4869840e0\n      0x36\n      swap2\n      codecopy\n      0x40\n      add\n      swap2\n      pop\n      pop\n      mload(0x40)\n      dup1\n      swap2\n      sub\n      swap1\n      revert\n    tag_36:\n        /* \"tenderly/bitcoincobra/tenderly/bitcoincobra/tenderly/project/Documents/DepositContract.sol\":6553:6555  96 */\n      0x60\n        /* \"tenderly/bitcoincobra/tenderly/bitcoincobra/tenderly/project/Documents/DepositContract.sol\":6533:6542  signature */\n      dup4\n      dup4\n        /* \"tenderly/bitcoincobra/tenderly/bitcoincobra/tenderly/project/Documents/DepositContract.sol\":6533:6549  signature.length */\n      swap1\n      pop\n        /* \"tenderly/bitcoincobra/tenderly/bitcoincobra/tenderly/project/Documents/DepositContract.sol\":6533:6555  signature.length == 96 */\n      eq\n        /* \"tenderly/bitcoincobra/tenderly/bitcoincobra/tenderly/project/Documents/DepositContract.sol\":6525:6601  require(signature.length == 96, \"DepositContract: invalid signature length\") */\n      tag_37\n      jumpi\n      mload(0x40)\n      0x08c379a000000000000000000000000000000000000000000000000000000000\n      dup2\n      mstore\n      0x04\n      add\n      dup1\n      dup1\n      0x20\n      add\n      dup3\n      dup2\n      sub\n      dup3\n      mstore\n      0x29\n      dup2\n      mstore\n      0x20\n      add\n      dup1\n      data_e15de1a983e2181dc403952307f19cbe1ac366f85accb46ba7ec34e71736287b\n      0x29\n      swap2\n      codecopy\n      0x40\n      add\n      swap2\n      pop\n      pop\n      mload(0x40)\n      dup1\n      swap2\n      sub\n      swap1\n      revert\n    tag_37:\n        /* \"tenderly/bitcoincobra/tenderly/bitcoincobra/tenderly/project/Documents/DepositContract.sol\":6665:6672  1 ether */\n      0x0de0b6b3a7640000\n        /* \"tenderly/bitcoincobra/tenderly/bitcoincobra/tenderly/project/Documents/DepositContract.sol\":6652:6661  msg.value */\n      callvalue\n        /* \"tenderly/bitcoincobra/tenderly/bitcoincobra/tenderly/project/Documents/DepositContract.sol\":6652:6672  msg.value >= 1 ether */\n      lt\n      iszero\n        /* \"tenderly/bitcoincobra/tenderly/bitcoincobra/tenderly/project/Documents/DepositContract.sol\":6644:6715  require(msg.value >= 1 ether, \"DepositContract: deposit value too low\") */\n      tag_38\n      jumpi\n      mload(0x40)\n      0x08c379a000000000000000000000000000000000000000000000000000000000\n      dup2\n      mstore\n      0x04\n      add\n      dup1\n      dup1\n      0x20\n      add\n      dup3\n      dup2\n      sub\n      dup3\n      mstore\n      0x26\n      dup2\n      mstore\n      0x20\n      add\n      dup1\n      data_d4d9a14975cc31a7dc18afc82ee6e59efa15377b990098eeaab4cc403f9d1217\n      0x26\n      swap2\n      codecopy\n      0x40\n      add\n      swap2\n      pop\n      pop\n      mload(0x40)\n      dup1\n      swap2\n      sub\n      swap1\n      revert\n    tag_38:\n        /* \"tenderly/bitcoincobra/tenderly/bitcoincobra/tenderly/project/Documents/DepositContract.sol\":6755:6756  0 */\n      0x00\n        /* \"tenderly/bitcoincobra/tenderly/bitcoincobra/tenderly/project/Documents/DepositContract.sol\":6745:6751  1 gwei */\n      0x3b9aca00\n        /* \"tenderly/bitcoincobra/tenderly/bitcoincobra/tenderly/project/Documents/DepositContract.sol\":6733:6742  msg.value */\n      callvalue\n        /* \"tenderly/bitcoincobra/tenderly/bitcoincobra/tenderly/project/Documents/DepositContract.sol\":6733:6751  msg.value % 1 gwei */\n      dup2\n      tag_39\n      jumpi\n      invalid\n    tag_39:\n      mod\n        /* \"tenderly/bitcoincobra/tenderly/bitcoincobra/tenderly/project/Documents/DepositContract.sol\":6733:6756  msg.value % 1 gwei == 0 */\n      eq\n        /* \"tenderly/bitcoincobra/tenderly/bitcoincobra/tenderly/project/Documents/DepositContract.sol\":6725:6812  require(msg.value % 1 gwei == 0, \"DepositContract: deposit value not multiple of gwei\") */\n      tag_40\n      jumpi\n      mload(0x40)\n      0x08c379a000000000000000000000000000000000000000000000000000000000\n      dup2\n      mstore\n      0x04\n      add\n      dup1\n      dup1\n      0x20\n      add\n      dup3\n      dup2\n      sub\n      dup3\n      mstore\n      0x33\n      dup2\n      mstore\n      0x20\n      add\n      dup1\n      data_7db03c60fbfd1382397614fc537e65f67f687dbb18307bed297bda7f864590e0\n      0x33\n      swap2\n      codecopy\n      0x40\n      add\n      swap2\n      pop\n      pop\n      mload(0x40)\n      dup1\n      swap2\n      sub\n      swap1\n      revert\n    tag_40:\n        /* \"tenderly/bitcoincobra/tenderly/bitcoincobra/tenderly/project/Documents/DepositContract.sol\":6822:6841  uint deposit_amount */\n      0x00\n        /* \"tenderly/bitcoincobra/tenderly/bitcoincobra/tenderly/project/Documents/DepositContract.sol\":6856:6862  1 gwei */\n      0x3b9aca00\n        /* \"tenderly/bitcoincobra/tenderly/bitcoincobra/tenderly/project/Documents/DepositContract.sol\":6844:6853  msg.value */\n      callvalue\n        /* \"tenderly/bitcoincobra/tenderly/bitcoincobra/tenderly/project/Documents/DepositContract.sol\":6844:6862  msg.value / 1 gwei */\n      dup2\n      tag_41\n      jumpi\n      invalid\n    tag_41:\n      div\n        /* \"tenderly/bitcoincobra/tenderly/bitcoincobra/tenderly/project/Documents/DepositContract.sol\":6822:6862  uint deposit_amount = msg.value / 1 gwei */\n      swap1\n      pop\n        /* \"tenderly/bitcoincobra/tenderly/bitcoincobra/tenderly/project/Documents/DepositContract.sol\":6898:6914  type(uint64).max */\n      0xffffffffffffffff\n        /* \"tenderly/bitcoincobra/tenderly/bitcoincobra/tenderly/project/Documents/DepositContract.sol\":6880:6914  deposit_amount <= type(uint64).max */\n      dup1\n      and\n        /* \"tenderly/bitcoincobra/tenderly/bitcoincobra/tenderly/project/Documents/DepositContract.sol\":6880:6894  deposit_amount */\n      dup2\n        /* \"tenderly/bitcoincobra/tenderly/bitcoincobra/tenderly/project/Documents/DepositContract.sol\":6880:6914  deposit_amount <= type(uint64).max */\n      gt\n      iszero\n        /* \"tenderly/bitcoincobra/tenderly/bitcoincobra/tenderly/project/Documents/DepositContract.sol\":6872:6958  require(deposit_amount <= type(uint64).max, \"DepositContract: deposit value too high\") */\n      tag_42\n      jumpi\n      mload(0x40)\n      0x08c379a000000000000000000000000000000000000000000000000000000000\n      dup2\n      mstore\n      0x04\n      add\n      dup1\n      dup1\n      0x20\n      add\n      dup3\n      dup2\n      sub\n      dup3\n      mstore\n      0x27\n      dup2\n      mstore\n      0x20\n      add\n      dup1\n      data_c445cee017c8884423c583c4e1697a8e774197f1748cc887aa73775ef891882f\n      0x27\n      swap2\n      codecopy\n      0x40\n      add\n      swap2\n      pop\n      pop\n      mload(0x40)\n      dup1\n      swap2\n      sub\n      swap1\n      revert\n    tag_42:\n        /* \"tenderly/bitcoincobra/tenderly/bitcoincobra/tenderly/project/Documents/DepositContract.sol\":7004:7023  bytes memory amount */\n      0x60\n        /* \"tenderly/bitcoincobra/tenderly/bitcoincobra/tenderly/project/Documents/DepositContract.sol\":7026:7069  to_little_endian_64(uint64(deposit_amount)) */\n      tag_43\n        /* \"tenderly/bitcoincobra/tenderly/bitcoincobra/tenderly/project/Documents/DepositContract.sol\":7053:7067  deposit_amount */\n      dup3\n        /* \"tenderly/bitcoincobra/tenderly/bitcoincobra/tenderly/project/Documents/DepositContract.sol\":7026:7045  to_little_endian_64 */\n      tag_44\n        /* \"tenderly/bitcoincobra/tenderly/bitcoincobra/tenderly/project/Documents/DepositContract.sol\":7026:7069  to_little_endian_64(uint64(deposit_amount)) */\n      jump\t// in\n    tag_43:\n        /* \"tenderly/bitcoincobra/tenderly/bitcoincobra/tenderly/project/Documents/DepositContract.sol\":7004:7069  bytes memory amount = to_little_endian_64(uint64(deposit_amount)) */\n      swap1\n      pop\n        /* \"tenderly/bitcoincobra/tenderly/bitcoincobra/tenderly/project/Documents/DepositContract.sol\":7084:7261  DepositEvent(... */\n      0x649bbc62d0e31342afea4e5cd82d4049e7e1ee912fc0889aa790803be39038c5\n        /* \"tenderly/bitcoincobra/tenderly/bitcoincobra/tenderly/project/Documents/DepositContract.sol\":7110:7116  pubkey */\n      dup10\n      dup10\n        /* \"tenderly/bitcoincobra/tenderly/bitcoincobra/tenderly/project/Documents/DepositContract.sol\":7130:7152  withdrawal_credentials */\n      dup10\n      dup10\n        /* \"tenderly/bitcoincobra/tenderly/bitcoincobra/tenderly/project/Documents/DepositContract.sol\":7166:7172  amount */\n      dup6\n        /* \"tenderly/bitcoincobra/tenderly/bitcoincobra/tenderly/project/Documents/DepositContract.sol\":7186:7195  signature */\n      dup11\n      dup11\n        /* \"tenderly/bitcoincobra/tenderly/bitcoincobra/tenderly/project/Documents/DepositContract.sol\":7209:7251  to_little_endian_64(uint64(deposit_count)) */\n      tag_45\n        /* \"tenderly/bitcoincobra/tenderly/bitcoincobra/tenderly/project/Documents/DepositContract.sol\":7236:7249  deposit_count */\n      sload(0x20)\n        /* \"tenderly/bitcoincobra/tenderly/bitcoincobra/tenderly/project/Documents/DepositContract.sol\":7209:7228  to_little_endian_64 */\n      tag_44\n        /* \"tenderly/bitcoincobra/tenderly/bitcoincobra/tenderly/project/Documents/DepositContract.sol\":7209:7251  to_little_endian_64(uint64(deposit_count)) */\n      jump\t// in\n    tag_45:\n        /* \"tenderly/bitcoincobra/tenderly/bitcoincobra/tenderly/project/Documents/DepositContract.sol\":7084:7261  DepositEvent(... */\n      mload(0x40)\n      dup1\n      dup1\n      0x20\n      add\n      dup1\n      0x20\n      add\n      dup1\n      0x20\n      add\n      dup1\n      0x20\n      add\n      dup1\n      0x20\n      add\n      dup7\n      dup2\n      sub\n      dup7\n      mstore\n      dup15\n      dup15\n      dup3\n      dup2\n      dup2\n      mstore\n      0x20\n      add\n      swap3\n      pop\n      dup1\n      dup3\n      dup5\n      calldatacopy\n      0x00\n      dup2\n      dup5\n      add\n      mstore\n      not(0x1f)\n      0x1f\n      dup3\n      add\n      and\n      swap1\n      pop\n      dup1\n      dup4\n      add\n      swap3\n      pop\n      pop\n      pop\n      dup7\n      dup2\n      sub\n      dup6\n      mstore\n      dup13\n      dup13\n      dup3\n      dup2\n      dup2\n      mstore\n      0x20\n      add\n      swap3\n      pop\n      dup1\n      dup3\n      dup5\n      calldatacopy\n      0x00\n      dup2\n      dup5\n      add\n      mstore\n      not(0x1f)\n      0x1f\n      dup3\n      add\n      and\n      swap1\n      pop\n      dup1\n      dup4\n      add\n      swap3\n      pop\n      pop\n      pop\n      dup7\n      dup2\n      sub\n      dup5\n      mstore\n      dup11\n      dup2\n      dup2\n      mload\n      dup2\n      mstore\n      0x20\n      add\n      swap2\n      pop\n      dup1\n      mload\n      swap1\n      0x20\n      add\n      swap1\n      dup1\n      dup4\n      dup4\n      0x00\n    tag_46:\n      dup4\n      dup2\n      lt\n      iszero\n      tag_48\n      jumpi\n      dup1\n      dup3\n      add\n      mload\n      dup2\n      dup5\n      add\n      mstore\n      0x20\n      dup2\n      add\n      swap1\n      pop\n      jump(tag_46)\n    tag_48:\n      pop\n      pop\n      pop\n      pop\n      swap1\n      pop\n      swap1\n      dup2\n      add\n      swap1\n      0x1f\n      and\n      dup1\n      iszero\n      tag_49\n      jumpi\n      dup1\n      dup3\n      sub\n      dup1\n      mload\n      0x01\n      dup4\n      0x20\n      sub\n      0x0100\n      exp\n      sub\n      not\n      and\n      dup2\n      mstore\n      0x20\n      add\n      swap2\n      pop\n    tag_49:\n      pop\n      dup7\n      dup2\n      sub\n      dup4\n      mstore\n      dup10\n      dup10\n      dup3\n      dup2\n      dup2\n      mstore\n      0x20\n      add\n      swap3\n      pop\n      dup1\n      dup3\n      dup5\n      calldatacopy\n      0x00\n      dup2\n      dup5\n      add\n      mstore\n      not(0x1f)\n      0x1f\n      dup3\n      add\n      and\n      swap1\n      pop\n      dup1\n      dup4\n      add\n      swap3\n      pop\n      pop\n      pop\n      dup7\n      dup2\n      sub\n      dup3\n      mstore\n      dup8\n      dup2\n      dup2\n      mload\n      dup2\n      mstore\n      0x20\n      add\n      swap2\n      pop\n      dup1\n      mload\n      swap1\n      0x20\n      add\n      swap1\n      dup1\n      dup4\n      dup4\n      0x00\n    tag_50:\n      dup4\n      dup2\n      lt\n      iszero\n      tag_52\n      jumpi\n      dup1\n      dup3\n      add\n      mload\n      dup2\n      dup5\n      add\n      mstore\n      0x20\n      dup2\n      add\n      swap1\n      pop\n      jump(tag_50)\n    tag_52:\n      pop\n      pop\n      pop\n      pop\n      swap1\n      pop\n      swap1\n      dup2\n      add\n      swap1\n      0x1f\n      and\n      dup1\n      iszero\n      tag_53\n      jumpi\n      dup1\n      dup3\n      sub\n      dup1\n      mload\n      0x01\n      dup4\n      0x20\n      sub\n      0x0100\n      exp\n      sub\n      not\n      and\n      dup2\n      mstore\n      0x20\n      add\n      swap2\n      pop\n    tag_53:\n      pop\n      swap14\n      pop\n      pop\n      pop\n      pop\n      pop\n      pop\n      pop\n      pop\n      pop\n      pop\n      pop\n      pop\n      pop\n      pop\n      mload(0x40)\n      dup1\n      swap2\n      sub\n      swap1\n      log1\n        /* \"tenderly/bitcoincobra/tenderly/bitcoincobra/tenderly/project/Documents/DepositContract.sol\":7340:7359  bytes32 pubkey_root */\n      0x00\n        /* \"tenderly/bitcoincobra/tenderly/bitcoincobra/tenderly/project/Documents/DepositContract.sol\":7362:7406  sha256(abi.encodePacked(pubkey, bytes16(0))) */\n      0x02\n        /* \"tenderly/bitcoincobra/tenderly/bitcoincobra/tenderly/project/Documents/DepositContract.sol\":7386:7392  pubkey */\n      dup11\n      dup11\n        /* \"tenderly/bitcoincobra/tenderly/bitcoincobra/tenderly/project/Documents/DepositContract.sol\":7402:7403  0 */\n      0x00\n        /* \"tenderly/bitcoincobra/tenderly/bitcoincobra/tenderly/project/Documents/DepositContract.sol\":7394:7404  bytes16(0) */\n      0x80\n      shl\n        /* \"tenderly/bitcoincobra/tenderly/bitcoincobra/tenderly/project/Documents/DepositContract.sol\":7369:7405  abi.encodePacked(pubkey, bytes16(0)) */\n      add(0x20, mload(0x40))\n      dup1\n      dup5\n      dup5\n      dup1\n      dup3\n      dup5\n      calldatacopy\n      dup1\n      dup4\n      add\n      swap3\n      pop\n      pop\n      pop\n      dup3\n      not(0xffffffffffffffffffffffffffffffff)\n      and\n      not(0xffffffffffffffffffffffffffffffff)\n      and\n      dup2\n      mstore\n      0x10\n      add\n      swap4\n      pop\n      pop\n      pop\n      pop\n      mload(0x40)\n      0x20\n      dup2\n      dup4\n      sub\n      sub\n      dup2\n      mstore\n      swap1\n      0x40\n      mstore\n        /* \"tenderly/bitcoincobra/tenderly/bitcoincobra/tenderly/project/Documents/DepositContract.sol\":7362:7406  sha256(abi.encodePacked(pubkey, bytes16(0))) */\n      mload(0x40)\n      dup1\n      dup3\n      dup1\n      mload\n      swap1\n      0x20\n      add\n      swap1\n      dup1\n      dup4\n      dup4\n    tag_54:\n      0x20\n      dup4\n      lt\n      tag_56\n      jumpi\n      dup1\n      mload\n      dup3\n      mstore\n      0x20\n      dup3\n      add\n      swap2\n      pop\n      0x20\n      dup2\n      add\n      swap1\n      pop\n      0x20\n      dup4\n      sub\n      swap3\n      pop\n      jump(tag_54)\n    tag_56:\n      0x01\n      dup4\n      0x20\n      sub\n      0x0100\n      exp\n      sub\n      dup1\n      not\n      dup3\n      mload\n      and\n      dup2\n      dup5\n      mload\n      and\n      dup1\n      dup3\n      or\n      dup6\n      mstore\n      pop\n      pop\n      pop\n      pop\n      pop\n      pop\n      swap1\n      pop\n      add\n      swap2\n      pop\n      pop\n      0x20\n      mload(0x40)\n      dup1\n      dup4\n      sub\n      dup2\n      dup6\n      gas\n      staticcall\n      iszero\n      dup1\n      iszero\n      tag_58\n      jumpi\n      returndatasize\n      0x00\n      dup1\n      returndatacopy\n      revert(0x00, returndatasize)\n    tag_58:\n      pop\n      pop\n      pop\n      mload(0x40)\n      returndatasize\n      0x20\n      dup2\n      lt\n      iszero\n      tag_59\n      jumpi\n      0x00\n      dup1\n      revert\n    tag_59:\n      dup2\n      add\n      swap1\n      dup1\n      dup1\n      mload\n      swap1\n      0x20\n      add\n      swap1\n      swap3\n      swap2\n      swap1\n      pop\n      pop\n      pop\n        /* \"tenderly/bitcoincobra/tenderly/bitcoincobra/tenderly/project/Documents/DepositContract.sol\":7340:7406  bytes32 pubkey_root = sha256(abi.encodePacked(pubkey, bytes16(0))) */\n      swap1\n      pop\n        /* \"tenderly/bitcoincobra/tenderly/bitcoincobra/tenderly/project/Documents/DepositContract.sol\":7416:7438  bytes32 signature_root */\n      0x00\n        /* \"tenderly/bitcoincobra/tenderly/bitcoincobra/tenderly/project/Documents/DepositContract.sol\":7441:7595  sha256(abi.encodePacked(... */\n      0x02\n        /* \"tenderly/bitcoincobra/tenderly/bitcoincobra/tenderly/project/Documents/DepositContract.sol\":7478:7518  sha256(abi.encodePacked(signature[:64])) */\n      dup1\n        /* \"tenderly/bitcoincobra/tenderly/bitcoincobra/tenderly/project/Documents/DepositContract.sol\":7502:7511  signature */\n      dup9\n      dup9\n        /* \"tenderly/bitcoincobra/tenderly/bitcoincobra/tenderly/project/Documents/DepositContract.sol\":7502:7516  signature[:64] */\n      0x00\n      swap1\n        /* \"tenderly/bitcoincobra/tenderly/bitcoincobra/tenderly/project/Documents/DepositContract.sol\":7513:7515  64 */\n      0x40\n        /* \"tenderly/bitcoincobra/tenderly/bitcoincobra/tenderly/project/Documents/DepositContract.sol\":7502:7516  signature[:64] */\n      swap3\n      tag_60\n      swap4\n      swap3\n      swap2\n      swap1\n      tag_61\n      jump\t// in\n    tag_60:\n        /* \"tenderly/bitcoincobra/tenderly/bitcoincobra/tenderly/project/Documents/DepositContract.sol\":7485:7517  abi.encodePacked(signature[:64]) */\n      add(0x20, mload(0x40))\n      dup1\n      dup4\n      dup4\n      dup1\n      dup3\n      dup5\n      calldatacopy\n      dup1\n      dup4\n      add\n      swap3\n      pop\n      pop\n      pop\n      swap3\n      pop\n      pop\n      pop\n      mload(0x40)\n      0x20\n      dup2\n      dup4\n      sub\n      sub\n      dup2\n      mstore\n      swap1\n      0x40\n      mstore\n        /* \"tenderly/bitcoincobra/tenderly/bitcoincobra/tenderly/project/Documents/DepositContract.sol\":7478:7518  sha256(abi.encodePacked(signature[:64])) */\n      mload(0x40)\n      dup1\n      dup3\n      dup1\n      mload\n      swap1\n      0x20\n      add\n      swap1\n      dup1\n      dup4\n      dup4\n    tag_62:\n      0x20\n      dup4\n      lt\n      tag_64\n      jumpi\n      dup1\n      mload\n      dup3\n      mstore\n      0x20\n      dup3\n      add\n      swap2\n      pop\n      0x20\n      dup2\n      add\n      swap1\n      pop\n      0x20\n      dup4\n      sub\n      swap3\n      pop\n      jump(tag_62)\n    tag_64:\n      0x01\n      dup4\n      0x20\n      sub\n      0x0100\n      exp\n      sub\n      dup1\n      not\n      dup3\n      mload\n      and\n      dup2\n      dup5\n      mload\n      and\n      dup1\n      dup3\n      or\n      dup6\n      mstore\n      pop\n      pop\n      pop\n      pop\n      pop\n      pop\n      swap1\n      pop\n      add\n      swap2\n      pop\n      pop\n      0x20\n      mload(0x40)\n      dup1\n      dup4\n      sub\n      dup2\n      dup6\n      gas\n      staticcall\n      iszero\n      dup1\n      iszero\n      tag_66\n      jumpi\n      returndatasize\n      0x00\n      dup1\n      returndatacopy\n      revert(0x00, returndatasize)\n    tag_66:\n      pop\n      pop\n      pop\n      mload(0x40)\n      returndatasize\n      0x20\n      dup2\n      lt\n      iszero\n      tag_67\n      jumpi\n      0x00\n      dup1\n      revert\n    tag_67:\n      dup2\n      add\n      swap1\n      dup1\n      dup1\n      mload\n      swap1\n      0x20\n      add\n      swap1\n      swap3\n      swap2\n      swap1\n      pop\n      pop\n      pop\n        /* \"tenderly/bitcoincobra/tenderly/bitcoincobra/tenderly/project/Documents/DepositContract.sol\":7532:7584  sha256(abi.encodePacked(signature[64:], bytes32(0))) */\n      0x02\n        /* \"tenderly/bitcoincobra/tenderly/bitcoincobra/tenderly/project/Documents/DepositContract.sol\":7556:7565  signature */\n      dup10\n      dup10\n        /* \"tenderly/bitcoincobra/tenderly/bitcoincobra/tenderly/project/Documents/DepositContract.sol\":7566:7568  64 */\n      0x40\n        /* \"tenderly/bitcoincobra/tenderly/bitcoincobra/tenderly/project/Documents/DepositContract.sol\":7556:7570  signature[64:] */\n      swap1\n      dup1\n      swap3\n      tag_68\n      swap4\n      swap3\n      swap2\n      swap1\n      tag_61\n      jump\t// in\n    tag_68:\n        /* \"tenderly/bitcoincobra/tenderly/bitcoincobra/tenderly/project/Documents/DepositContract.sol\":7580:7581  0 */\n      0x00\n        /* \"tenderly/bitcoincobra/tenderly/bitcoincobra/tenderly/project/Documents/DepositContract.sol\":7572:7582  bytes32(0) */\n      dup1\n      shl\n        /* \"tenderly/bitcoincobra/tenderly/bitcoincobra/tenderly/project/Documents/DepositContract.sol\":7539:7583  abi.encodePacked(signature[64:], bytes32(0)) */\n      add(0x20, mload(0x40))\n      dup1\n      dup5\n      dup5\n      dup1\n      dup3\n      dup5\n      calldatacopy\n      dup1\n      dup4\n      add\n      swap3\n      pop\n      pop\n      pop\n      dup3\n      dup2\n      mstore\n      0x20\n      add\n      swap4\n      pop\n      pop\n      pop\n      pop\n      mload(0x40)\n      0x20\n      dup2\n      dup4\n      sub\n      sub\n      dup2\n      mstore\n      swap1\n      0x40\n      mstore\n        /* \"tenderly/bitcoincobra/tenderly/bitcoincobra/tenderly/project/Documents/DepositContract.sol\":7532:7584  sha256(abi.encodePacked(signature[64:], bytes32(0))) */\n      mload(0x40)\n      dup1\n      dup3\n      dup1\n      mload\n      swap1\n      0x20\n      add\n      swap1\n      dup1\n      dup4\n      dup4\n    tag_69:\n      0x20\n      dup4\n      lt\n      tag_71\n      jumpi\n      dup1\n      mload\n      dup3\n      mstore\n      0x20\n      dup3\n      add\n      swap2\n      pop\n      0x20\n      dup2\n      add\n      swap1\n      pop\n      0x20\n      dup4\n      sub\n      swap3\n      pop\n      jump(tag_69)\n    tag_71:\n      0x01\n      dup4\n      0x20\n      sub\n      0x0100\n      exp\n      sub\n      dup1\n      not\n      dup3\n      mload\n      and\n      dup2\n      dup5\n      mload\n      and\n      dup1\n      dup3\n      or\n      dup6\n      mstore\n      pop\n      pop\n      pop\n      pop\n      pop\n      pop\n      swap1\n      pop\n      add\n      swap2\n      pop\n      pop\n      0x20\n      mload(0x40)\n      dup1\n      dup4\n      sub\n      dup2\n      dup6\n      gas\n      staticcall\n      iszero\n      dup1\n      iszero\n      tag_73\n      jumpi\n      returndatasize\n      0x00\n      dup1\n      returndatacopy\n      revert(0x00, returndatasize)\n    tag_73:\n      pop\n      pop\n      pop\n      mload(0x40)\n      returndatasize\n      0x20\n      dup2\n      lt\n      iszero\n      tag_74\n      jumpi\n      0x00\n      dup1\n      revert\n    tag_74:\n      dup2\n      add\n      swap1\n      dup1\n      dup1\n      mload\n      swap1\n      0x20\n      add\n      swap1\n      swap3\n      swap2\n      swap1\n      pop\n      pop\n      pop\n        /* \"tenderly/bitcoincobra/tenderly/bitcoincobra/tenderly/project/Documents/DepositContract.sol\":7448:7594  abi.encodePacked(... */\n      add(0x20, mload(0x40))\n      dup1\n      dup4\n      dup2\n      mstore\n      0x20\n      add\n      dup3\n      dup2\n      mstore\n      0x20\n      add\n      swap3\n      pop\n      pop\n      pop\n      mload(0x40)\n      0x20\n      dup2\n      dup4\n      sub\n      sub\n      dup2\n      mstore\n      swap1\n      0x40\n      mstore\n        /* \"tenderly/bitcoincobra/tenderly/bitcoincobra/tenderly/project/Documents/DepositContract.sol\":7441:7595  sha256(abi.encodePacked(... */\n      mload(0x40)\n      dup1\n      dup3\n      dup1\n      mload\n      swap1\n      0x20\n      add\n      swap1\n      dup1\n      dup4\n      dup4\n    tag_75:\n      0x20\n      dup4\n      lt\n      tag_77\n      jumpi\n      dup1\n      mload\n      dup3\n      mstore\n      0x20\n      dup3\n      add\n      swap2\n      pop\n      0x20\n      dup2\n      add\n      swap1\n      pop\n      0x20\n      dup4\n      sub\n      swap3\n      pop\n      jump(tag_75)\n    tag_77:\n      0x01\n      dup4\n      0x20\n      sub\n      0x0100\n      exp\n      sub\n      dup1\n      not\n      dup3\n      mload\n      and\n      dup2\n      dup5\n      mload\n      and\n      dup1\n      dup3\n      or\n      dup6\n      mstore\n      pop\n      pop\n      pop\n      pop\n      pop\n      pop\n      swap1\n      pop\n      add\n      swap2\n      pop\n      pop\n      0x20\n      mload(0x40)\n      dup1\n      dup4\n      sub\n      dup2\n      dup6\n      gas\n      staticcall\n      iszero\n      dup1\n      iszero\n      tag_79\n      jumpi\n      returndatasize\n      0x00\n      dup1\n      returndatacopy\n      revert(0x00, returndatasize)\n    tag_79:\n      pop\n      pop\n      pop\n      mload(0x40)\n      returndatasize\n      0x20\n      dup2\n      lt\n      iszero\n      tag_80\n      jumpi\n      0x00\n      dup1\n      revert\n    tag_80:\n      dup2\n      add\n      swap1\n      dup1\n      dup1\n      mload\n      swap1\n      0x20\n      add\n      swap1\n      swap3\n      swap2\n      swap1\n      pop\n      pop\n      pop\n        /* \"tenderly/bitcoincobra/tenderly/bitcoincobra/tenderly/project/Documents/DepositContract.sol\":7416:7595  bytes32 signature_root = sha256(abi.encodePacked(... */\n      swap1\n      pop\n        /* \"tenderly/bitcoincobra/tenderly/bitcoincobra/tenderly/project/Documents/DepositContract.sol\":7605:7617  bytes32 node */\n      0x00\n        /* \"tenderly/bitcoincobra/tenderly/bitcoincobra/tenderly/project/Documents/DepositContract.sol\":7620:7803  sha256(abi.encodePacked(... */\n      0x02\n        /* \"tenderly/bitcoincobra/tenderly/bitcoincobra/tenderly/project/Documents/DepositContract.sol\":7657:7718  sha256(abi.encodePacked(pubkey_root, withdrawal_credentials)) */\n      dup1\n        /* \"tenderly/bitcoincobra/tenderly/bitcoincobra/tenderly/project/Documents/DepositContract.sol\":7681:7692  pubkey_root */\n      dup5\n        /* \"tenderly/bitcoincobra/tenderly/bitcoincobra/tenderly/project/Documents/DepositContract.sol\":7694:7716  withdrawal_credentials */\n      dup13\n      dup13\n        /* \"tenderly/bitcoincobra/tenderly/bitcoincobra/tenderly/project/Documents/DepositContract.sol\":7664:7717  abi.encodePacked(pubkey_root, withdrawal_credentials) */\n      add(0x20, mload(0x40))\n      dup1\n      dup5\n      dup2\n      mstore\n      0x20\n      add\n      dup4\n      dup4\n      dup1\n      dup3\n      dup5\n      calldatacopy\n      dup1\n      dup4\n      add\n      swap3\n      pop\n      pop\n      pop\n      swap4\n      pop\n      pop\n      pop\n      pop\n      mload(0x40)\n      0x20\n      dup2\n      dup4\n      sub\n      sub\n      dup2\n      mstore\n      swap1\n      0x40\n      mstore\n        /* \"tenderly/bitcoincobra/tenderly/bitcoincobra/tenderly/project/Documents/DepositContract.sol\":7657:7718  sha256(abi.encodePacked(pubkey_root, withdrawal_credentials)) */\n      mload(0x40)\n      dup1\n      dup3\n      dup1\n      mload\n      swap1\n      0x20\n      add\n      swap1\n      dup1\n      dup4\n      dup4\n    tag_81:\n      0x20\n      dup4\n      lt\n      tag_83\n      jumpi\n      dup1\n      mload\n      dup3\n      mstore\n      0x20\n      dup3\n      add\n      swap2\n      pop\n      0x20\n      dup2\n      add\n      swap1\n      pop\n      0x20\n      dup4\n      sub\n      swap3\n      pop\n      jump(tag_81)\n    tag_83:\n      0x01\n      dup4\n      0x20\n      sub\n      0x0100\n      exp\n      sub\n      dup1\n      not\n      dup3\n      mload\n      and\n      dup2\n      dup5\n      mload\n      and\n      dup1\n      dup3\n      or\n      dup6\n      mstore\n      pop\n      pop\n      pop\n      pop\n      pop\n      pop\n      swap1\n      pop\n      add\n      swap2\n      pop\n      pop\n      0x20\n      mload(0x40)\n      dup1\n      dup4\n      sub\n      dup2\n      dup6\n      gas\n      staticcall\n      iszero\n      dup1\n      iszero\n      tag_85\n      jumpi\n      returndatasize\n      0x00\n      dup1\n      returndatacopy\n      revert(0x00, returndatasize)\n    tag_85:\n      pop\n      pop\n      pop\n      mload(0x40)\n      returndatasize\n      0x20\n      dup2\n      lt\n      iszero\n      tag_86\n      jumpi\n      0x00\n      dup1\n      revert\n    tag_86:\n      dup2\n      add\n      swap1\n      dup1\n      dup1\n      mload\n      swap1\n      0x20\n      add\n      swap1\n      swap3\n      swap2\n      swap1\n      pop\n      pop\n      pop\n        /* \"tenderly/bitcoincobra/tenderly/bitcoincobra/tenderly/project/Documents/DepositContract.sol\":7732:7792  sha256(abi.encodePacked(amount, bytes24(0), signature_root)) */\n      0x02\n        /* \"tenderly/bitcoincobra/tenderly/bitcoincobra/tenderly/project/Documents/DepositContract.sol\":7756:7762  amount */\n      dup7\n        /* \"tenderly/bitcoincobra/tenderly/bitcoincobra/tenderly/project/Documents/DepositContract.sol\":7772:7773  0 */\n      0x00\n        /* \"tenderly/bitcoincobra/tenderly/bitcoincobra/tenderly/project/Documents/DepositContract.sol\":7764:7774  bytes24(0) */\n      0x40\n      shl\n        /* \"tenderly/bitcoincobra/tenderly/bitcoincobra/tenderly/project/Documents/DepositContract.sol\":7776:7790  signature_root */\n      dup7\n        /* \"tenderly/bitcoincobra/tenderly/bitcoincobra/tenderly/project/Documents/DepositContract.sol\":7739:7791  abi.encodePacked(amount, bytes24(0), signature_root) */\n      add(0x20, mload(0x40))\n      dup1\n      dup5\n      dup1\n      mload\n      swap1\n      0x20\n      add\n      swap1\n      dup1\n      dup4\n      dup4\n    tag_87:\n      0x20\n      dup4\n      lt\n      tag_89\n      jumpi\n      dup1\n      mload\n      dup3\n      mstore\n      0x20\n      dup3\n      add\n      swap2\n      pop\n      0x20\n      dup2\n      add\n      swap1\n      pop\n      0x20\n      dup4\n      sub\n      swap3\n      pop\n      jump(tag_87)\n    tag_89:\n      0x01\n      dup4\n      0x20\n      sub\n      0x0100\n      exp\n      sub\n      dup1\n      not\n      dup3\n      mload\n      and\n      dup2\n      dup5\n      mload\n      and\n      dup1\n      dup3\n      or\n      dup6\n      mstore\n      pop\n      pop\n      pop\n      pop\n      pop\n      pop\n      swap1\n      pop\n      add\n      dup4\n      not(0xffffffffffffffff)\n      and\n      not(0xffffffffffffffff)\n      and\n      dup2\n      mstore\n      0x18\n      add\n      dup3\n      dup2\n      mstore\n      0x20\n      add\n      swap4\n      pop\n      pop\n      pop\n      pop\n      mload(0x40)\n      0x20\n      dup2\n      dup4\n      sub\n      sub\n      dup2\n      mstore\n      swap1\n      0x40\n      mstore\n        /* \"tenderly/bitcoincobra/tenderly/bitcoincobra/tenderly/project/Documents/DepositContract.sol\":7732:7792  sha256(abi.encodePacked(amount, bytes24(0), signature_root)) */\n      mload(0x40)\n      dup1\n      dup3\n      dup1\n      mload\n      swap1\n      0x20\n      add\n      swap1\n      dup1\n      dup4\n      dup4\n    tag_90:\n      0x20\n      dup4\n      lt\n      tag_92\n      jumpi\n      dup1\n      mload\n      dup3\n      mstore\n      0x20\n      dup3\n      add\n      swap2\n      pop\n      0x20\n      dup2\n      add\n      swap1\n      pop\n      0x20\n      dup4\n      sub\n      swap3\n      pop\n      jump(tag_90)\n    tag_92:\n      0x01\n      dup4\n      0x20\n      sub\n      0x0100\n      exp\n      sub\n      dup1\n      not\n      dup3\n      mload\n      and\n      dup2\n      dup5\n      mload\n      and\n      dup1\n      dup3\n      or\n      dup6\n      mstore\n      pop\n      pop\n      pop\n      pop\n      pop\n      pop\n      swap1\n      pop\n      add\n      swap2\n      pop\n      pop\n      0x20\n      mload(0x40)\n      dup1\n      dup4\n      sub\n      dup2\n      dup6\n      gas\n      staticcall\n      iszero\n      dup1\n      iszero\n      tag_94\n      jumpi\n      returndatasize\n      0x00\n      dup1\n      returndatacopy\n      revert(0x00, returndatasize)\n    tag_94:\n      pop\n      pop\n      pop\n      mload(0x40)\n      returndatasize\n      0x20\n      dup2\n      lt\n      iszero\n      tag_95\n      jumpi\n      0x00\n      dup1\n      revert\n    tag_95:\n      dup2\n      add\n      swap1\n      dup1\n      dup1\n      mload\n      swap1\n      0x20\n      add\n      swap1\n      swap3\n      swap2\n      swap1\n      pop\n      pop\n      pop\n        /* \"tenderly/bitcoincobra/tenderly/bitcoincobra/tenderly/project/Documents/DepositContract.sol\":7627:7802  abi.encodePacked(... */\n      add(0x20, mload(0x40))\n      dup1\n      dup4\n      dup2\n      mstore\n      0x20\n      add\n      dup3\n      dup2\n      mstore\n      0x20\n      add\n      swap3\n      pop\n      pop\n      pop\n      mload(0x40)\n      0x20\n      dup2\n      dup4\n      sub\n      sub\n      dup2\n      mstore\n      swap1\n      0x40\n      mstore\n        /* \"tenderly/bitcoincobra/tenderly/bitcoincobra/tenderly/project/Documents/DepositContract.sol\":7620:7803  sha256(abi.encodePacked(... */\n      mload(0x40)\n      dup1\n      dup3\n      dup1\n      mload\n      swap1\n      0x20\n      add\n      swap1\n      dup1\n      dup4\n      dup4\n    tag_96:\n      0x20\n      dup4\n      lt\n      tag_98\n      jumpi\n      dup1\n      mload\n      dup3\n      mstore\n      0x20\n      dup3\n      add\n      swap2\n      pop\n      0x20\n      dup2\n      add\n      swap1\n      pop\n      0x20\n      dup4\n      sub\n      swap3\n      pop\n      jump(tag_96)\n    tag_98:\n      0x01\n      dup4\n      0x20\n      sub\n      0x0100\n      exp\n      sub\n      dup1\n      not\n      dup3\n      mload\n      and\n      dup2\n      dup5\n      mload\n      and\n      dup1\n      dup3\n      or\n      dup6\n      mstore\n      pop\n      pop\n      pop\n      pop\n      pop\n      pop\n      swap1\n      pop\n      add\n      swap2\n      pop\n      pop\n      0x20\n      mload(0x40)\n      dup1\n      dup4\n      sub\n      dup2\n      dup6\n      gas\n      staticcall\n      iszero\n      dup1\n      iszero\n      tag_100\n      jumpi\n      returndatasize\n      0x00\n      dup1\n      returndatacopy\n      revert(0x00, returndatasize)\n    tag_100:\n      pop\n      pop\n      pop\n      mload(0x40)\n      returndatasize\n      0x20\n      dup2\n      lt\n      iszero\n      tag_101\n      jumpi\n      0x00\n      dup1\n      revert\n    tag_101:\n      dup2\n      add\n      swap1\n      dup1\n      dup1\n      mload\n      swap1\n      0x20\n      add\n      swap1\n      swap3\n      swap2\n      swap1\n      pop\n      pop\n      pop\n        /* \"tenderly/bitcoincobra/tenderly/bitcoincobra/tenderly/project/Documents/DepositContract.sol\":7605:7803  bytes32 node = sha256(abi.encodePacked(... */\n      swap1\n      pop\n        /* \"tenderly/bitcoincobra/tenderly/bitcoincobra/tenderly/project/Documents/DepositContract.sol\":7895:7912  deposit_data_root */\n      dup6\n        /* \"tenderly/bitcoincobra/tenderly/bitcoincobra/tenderly/project/Documents/DepositContract.sol\":7887:7891  node */\n      dup2\n        /* \"tenderly/bitcoincobra/tenderly/bitcoincobra/tenderly/project/Documents/DepositContract.sol\":7887:7912  node == deposit_data_root */\n      eq\n        /* \"tenderly/bitcoincobra/tenderly/bitcoincobra/tenderly/project/Documents/DepositContract.sol\":7879:8001  require(node == deposit_data_root, \"DepositContract: reconstructed DepositData does not match supplied deposit_data_root\") */\n      tag_102\n      jumpi\n      mload(0x40)\n      0x08c379a000000000000000000000000000000000000000000000000000000000\n      dup2\n      mstore\n      0x04\n      add\n      dup1\n      dup1\n      0x20\n      add\n      dup3\n      dup2\n      sub\n      dup3\n      mstore\n      0x54\n      dup2\n      mstore\n      0x20\n      add\n      dup1\n      data_18a67971568b2dbad4353dfdc385098cc004c2a5070a439e010bb919d851babb\n      0x54\n      swap2\n      codecopy\n      0x60\n      add\n      swap2\n      pop\n      pop\n      mload(0x40)\n      dup1\n      swap2\n      sub\n      swap1\n      revert\n    tag_102:\n        /* \"tenderly/bitcoincobra/tenderly/bitcoincobra/tenderly/project/Documents/DepositContract.sol\":4898:4899  1 */\n      0x01\n        /* \"tenderly/bitcoincobra/tenderly/bitcoincobra/tenderly/project/Documents/DepositContract.sol\":4754:4756  32 */\n      0x20\n        /* \"tenderly/bitcoincobra/tenderly/bitcoincobra/tenderly/project/Documents/DepositContract.sol\":4865:4866  2 */\n      0x02\n        /* \"tenderly/bitcoincobra/tenderly/bitcoincobra/tenderly/project/Documents/DepositContract.sol\":4865:4895  2**DEPOSIT_CONTRACT_TREE_DEPTH */\n      exp\n        /* \"tenderly/bitcoincobra/tenderly/bitcoincobra/tenderly/project/Documents/DepositContract.sol\":4865:4899  2**DEPOSIT_CONTRACT_TREE_DEPTH - 1 */\n      sub\n        /* \"tenderly/bitcoincobra/tenderly/bitcoincobra/tenderly/project/Documents/DepositContract.sol\":8111:8124  deposit_count */\n      sload(0x20)\n        /* \"tenderly/bitcoincobra/tenderly/bitcoincobra/tenderly/project/Documents/DepositContract.sol\":8111:8144  deposit_count < MAX_DEPOSIT_COUNT */\n      lt\n        /* \"tenderly/bitcoincobra/tenderly/bitcoincobra/tenderly/project/Documents/DepositContract.sol\":8103:8182  require(deposit_count < MAX_DEPOSIT_COUNT, \"DepositContract: merkle tree full\") */\n      tag_103\n      jumpi\n      mload(0x40)\n      0x08c379a000000000000000000000000000000000000000000000000000000000\n      dup2\n      mstore\n      0x04\n      add\n      dup1\n      dup1\n      0x20\n      add\n      dup3\n      dup2\n      sub\n      dup3\n      mstore\n      0x21\n      dup2\n      mstore\n      0x20\n      add\n      dup1\n      data_122aa4bcac592fd535cb6d2558ebbf28083cd32a46ad577d847ea313cd3a6be7\n      0x21\n      swap2\n      codecopy\n      0x40\n      add\n      swap2\n      pop\n      pop\n      mload(0x40)\n      dup1\n      swap2\n      sub\n      swap1\n      revert\n    tag_103:\n        /* \"tenderly/bitcoincobra/tenderly/bitcoincobra/tenderly/project/Documents/DepositContract.sol\":8290:8291  1 */\n      0x01\n        /* \"tenderly/bitcoincobra/tenderly/bitcoincobra/tenderly/project/Documents/DepositContract.sol\":8273:8286  deposit_count */\n      0x20\n      0x00\n        /* \"tenderly/bitcoincobra/tenderly/bitcoincobra/tenderly/project/Documents/DepositContract.sol\":8273:8291  deposit_count += 1 */\n      dup3\n      dup3\n      sload\n      add\n      swap3\n      pop\n      pop\n      dup2\n      swap1\n      sstore\n      pop\n        /* \"tenderly/bitcoincobra/tenderly/bitcoincobra/tenderly/project/Documents/DepositContract.sol\":8301:8310  uint size */\n      0x00\n        /* \"tenderly/bitcoincobra/tenderly/bitcoincobra/tenderly/project/Documents/DepositContract.sol\":8313:8326  deposit_count */\n      sload(0x20)\n        /* \"tenderly/bitcoincobra/tenderly/bitcoincobra/tenderly/project/Documents/DepositContract.sol\":8301:8326  uint size = deposit_count */\n      swap1\n      pop\n        /* \"tenderly/bitcoincobra/tenderly/bitcoincobra/tenderly/project/Documents/DepositContract.sol\":8341:8352  uint height */\n      0x00\n        /* \"tenderly/bitcoincobra/tenderly/bitcoincobra/tenderly/project/Documents/DepositContract.sol\":8355:8356  0 */\n      dup1\n        /* \"tenderly/bitcoincobra/tenderly/bitcoincobra/tenderly/project/Documents/DepositContract.sol\":8341:8356  uint height = 0 */\n      swap1\n      pop\n        /* \"tenderly/bitcoincobra/tenderly/bitcoincobra/tenderly/project/Documents/DepositContract.sol\":8336:8619  for (uint height = 0; height < DEPOSIT_CONTRACT_TREE_DEPTH; height++) {... */\n    tag_104:\n        /* \"tenderly/bitcoincobra/tenderly/bitcoincobra/tenderly/project/Documents/DepositContract.sol\":4754:4756  32 */\n      0x20\n        /* \"tenderly/bitcoincobra/tenderly/bitcoincobra/tenderly/project/Documents/DepositContract.sol\":8358:8364  height */\n      dup2\n        /* \"tenderly/bitcoincobra/tenderly/bitcoincobra/tenderly/project/Documents/DepositContract.sol\":8358:8394  height < DEPOSIT_CONTRACT_TREE_DEPTH */\n      lt\n        /* \"tenderly/bitcoincobra/tenderly/bitcoincobra/tenderly/project/Documents/DepositContract.sol\":8336:8619  for (uint height = 0; height < DEPOSIT_CONTRACT_TREE_DEPTH; height++) {... */\n      iszero\n      tag_105\n      jumpi\n        /* \"tenderly/bitcoincobra/tenderly/bitcoincobra/tenderly/project/Documents/DepositContract.sol\":8438:8439  1 */\n      0x01\n        /* \"tenderly/bitcoincobra/tenderly/bitcoincobra/tenderly/project/Documents/DepositContract.sol\":8432:8433  1 */\n      dup1\n        /* \"tenderly/bitcoincobra/tenderly/bitcoincobra/tenderly/project/Documents/DepositContract.sol\":8425:8429  size */\n      dup4\n        /* \"tenderly/bitcoincobra/tenderly/bitcoincobra/tenderly/project/Documents/DepositContract.sol\":8425:8433  size & 1 */\n      and\n        /* \"tenderly/bitcoincobra/tenderly/bitcoincobra/tenderly/project/Documents/DepositContract.sol\":8424:8439  (size & 1) == 1 */\n      eq\n        /* \"tenderly/bitcoincobra/tenderly/bitcoincobra/tenderly/project/Documents/DepositContract.sol\":8420:8519  if ((size & 1) == 1) {... */\n      iszero\n      tag_107\n      jumpi\n        /* \"tenderly/bitcoincobra/tenderly/bitcoincobra/tenderly/project/Documents/DepositContract.sol\":8476:8480  node */\n      dup3\n        /* \"tenderly/bitcoincobra/tenderly/bitcoincobra/tenderly/project/Documents/DepositContract.sol\":8459:8465  branch */\n      0x00\n        /* \"tenderly/bitcoincobra/tenderly/bitcoincobra/tenderly/project/Documents/DepositContract.sol\":8466:8472  height */\n      dup3\n        /* \"tenderly/bitcoincobra/tenderly/bitcoincobra/tenderly/project/Documents/DepositContract.sol\":8459:8473  branch[height] */\n      0x20\n      dup2\n      lt\n      tag_108\n      jumpi\n      invalid\n    tag_108:\n      add\n        /* \"tenderly/bitcoincobra/tenderly/bitcoincobra/tenderly/project/Documents/DepositContract.sol\":8459:8480  branch[height] = node */\n      dup2\n      swap1\n      sstore\n      pop\n        /* \"tenderly/bitcoincobra/tenderly/bitcoincobra/tenderly/project/Documents/DepositContract.sol\":8498:8505  return; */\n      pop\n      pop\n      pop\n      pop\n      pop\n      pop\n      pop\n      jump(tag_34)\n        /* \"tenderly/bitcoincobra/tenderly/bitcoincobra/tenderly/project/Documents/DepositContract.sol\":8420:8519  if ((size & 1) == 1) {... */\n    tag_107:\n        /* \"tenderly/bitcoincobra/tenderly/bitcoincobra/tenderly/project/Documents/DepositContract.sol\":8539:8585  sha256(abi.encodePacked(branch[height], node)) */\n      0x02\n        /* \"tenderly/bitcoincobra/tenderly/bitcoincobra/tenderly/project/Documents/DepositContract.sol\":8563:8569  branch */\n      0x00\n        /* \"tenderly/bitcoincobra/tenderly/bitcoincobra/tenderly/project/Documents/DepositContract.sol\":8570:8576  height */\n      dup3\n        /* \"tenderly/bitcoincobra/tenderly/bitcoincobra/tenderly/project/Documents/DepositContract.sol\":8563:8577  branch[height] */\n      0x20\n      dup2\n      lt\n      tag_110\n      jumpi\n      invalid\n    tag_110:\n      add\n      sload\n        /* \"tenderly/bitcoincobra/tenderly/bitcoincobra/tenderly/project/Documents/DepositContract.sol\":8579:8583  node */\n      dup5\n        /* \"tenderly/bitcoincobra/tenderly/bitcoincobra/tenderly/project/Documents/DepositContract.sol\":8546:8584  abi.encodePacked(branch[height], node) */\n      add(0x20, mload(0x40))\n      dup1\n      dup4\n      dup2\n      mstore\n      0x20\n      add\n      dup3\n      dup2\n      mstore\n      0x20\n      add\n      swap3\n      pop\n      pop\n      pop\n      mload(0x40)\n      0x20\n      dup2\n      dup4\n      sub\n      sub\n      dup2\n      mstore\n      swap1\n      0x40\n      mstore\n        /* \"tenderly/bitcoincobra/tenderly/bitcoincobra/tenderly/project/Documents/DepositContract.sol\":8539:8585  sha256(abi.encodePacked(branch[height], node)) */\n      mload(0x40)\n      dup1\n      dup3\n      dup1\n      mload\n      swap1\n      0x20\n      add\n      swap1\n      dup1\n      dup4\n      dup4\n    tag_112:\n      0x20\n      dup4\n      lt\n      tag_114\n      jumpi\n      dup1\n      mload\n      dup3\n      mstore\n      0x20\n      dup3\n      add\n      swap2\n      pop\n      0x20\n      dup2\n      add\n      swap1\n      pop\n      0x20\n      dup4\n      sub\n      swap3\n      pop\n      jump(tag_112)\n    tag_114:\n      0x01\n      dup4\n      0x20\n      sub\n      0x0100\n      exp\n      sub\n      dup1\n      not\n      dup3\n      mload\n      and\n      dup2\n      dup5\n      mload\n      and\n      dup1\n      dup3\n      or\n      dup6\n      mstore\n      pop\n      pop\n      pop\n      pop\n      pop\n      pop\n      swap1\n      pop\n      add\n      swap2\n      pop\n      pop\n      0x20\n      mload(0x40)\n      dup1\n      dup4\n      sub\n      dup2\n      dup6\n      gas\n      staticcall\n      iszero\n      dup1\n      iszero\n      tag_116\n      jumpi\n      returndatasize\n      0x00\n      dup1\n      returndatacopy\n      revert(0x00, returndatasize)\n    tag_116:\n      pop\n      pop\n      pop\n      mload(0x40)\n      returndatasize\n      0x20\n      dup2\n      lt\n      iszero\n      tag_117\n      jumpi\n      0x00\n      dup1\n      revert\n    tag_117:\n      dup2\n      add\n      swap1\n      dup1\n      dup1\n      mload\n      swap1\n      0x20\n      add\n      swap1\n      swap3\n      swap2\n      swap1\n      pop\n      pop\n      pop\n        /* \"tenderly/bitcoincobra/tenderly/bitcoincobra/tenderly/project/Documents/DepositContract.sol\":8532:8585  node = sha256(abi.encodePacked(branch[height], node)) */\n      swap3\n      pop\n        /* \"tenderly/bitcoincobra/tenderly/bitcoincobra/tenderly/project/Documents/DepositContract.sol\":8607:8608  2 */\n      0x02\n        /* \"tenderly/bitcoincobra/tenderly/bitcoincobra/tenderly/project/Documents/DepositContract.sol\":8599:8608  size /= 2 */\n      dup3\n      dup2\n      tag_118\n      jumpi\n      invalid\n    tag_118:\n      div\n      swap2\n      pop\n        /* \"tenderly/bitcoincobra/tenderly/bitcoincobra/tenderly/project/Documents/DepositContract.sol\":8396:8404  height++ */\n      dup1\n      dup1\n      0x01\n      add\n      swap2\n      pop\n      pop\n        /* \"tenderly/bitcoincobra/tenderly/bitcoincobra/tenderly/project/Documents/DepositContract.sol\":8336:8619  for (uint height = 0; height < DEPOSIT_CONTRACT_TREE_DEPTH; height++) {... */\n      jump(tag_104)\n    tag_105:\n      pop\n        /* \"tenderly/bitcoincobra/tenderly/bitcoincobra/tenderly/project/Documents/DepositContract.sol\":8796:8801  false */\n      0x00\n        /* \"tenderly/bitcoincobra/tenderly/bitcoincobra/tenderly/project/Documents/DepositContract.sol\":8789:8802  assert(false) */\n      tag_119\n      jumpi\n      invalid\n    tag_119:\n        /* \"tenderly/bitcoincobra/tenderly/bitcoincobra/tenderly/project/Documents/DepositContract.sol\":6059:8809  function deposit(... */\n      pop\n      pop\n      pop\n      pop\n      pop\n      pop\n    tag_34:\n      pop\n      pop\n      pop\n      pop\n      pop\n      pop\n      pop\n      jump\t// out\n        /* \"tenderly/bitcoincobra/tenderly/bitcoincobra/tenderly/project/Documents/DepositContract.sol\":5912:6053  function get_deposit_count() override external view returns (bytes memory) {... */\n    tag_24:\n        /* \"tenderly/bitcoincobra/tenderly/bitcoincobra/tenderly/project/Documents/DepositContract.sol\":5973:5985  bytes memory */\n      0x60\n        /* \"tenderly/bitcoincobra/tenderly/bitcoincobra/tenderly/project/Documents/DepositContract.sol\":6004:6046  to_little_endian_64(uint64(deposit_count)) */\n      tag_121\n        /* \"tenderly/bitcoincobra/tenderly/bitcoincobra/tenderly/project/Documents/DepositContract.sol\":6031:6044  deposit_count */\n      sload(0x20)\n        /* \"tenderly/bitcoincobra/tenderly/bitcoincobra/tenderly/project/Documents/DepositContract.sol\":6004:6023  to_little_endian_64 */\n      tag_44\n        /* \"tenderly/bitcoincobra/tenderly/bitcoincobra/tenderly/project/Documents/DepositContract.sol\":6004:6046  to_little_endian_64(uint64(deposit_count)) */\n      jump\t// in\n    tag_121:\n        /* \"tenderly/bitcoincobra/tenderly/bitcoincobra/tenderly/project/Documents/DepositContract.sol\":5997:6046  return to_little_endian_64(uint64(deposit_count)) */\n      swap1\n      pop\n        /* \"tenderly/bitcoincobra/tenderly/bitcoincobra/tenderly/project/Documents/DepositContract.sol\":5912:6053  function get_deposit_count() override external view returns (bytes memory) {... */\n      swap1\n      jump\t// out\n        /* \"tenderly/bitcoincobra/tenderly/bitcoincobra/tenderly/project/Documents/DepositContract.sol\":5314:5906  function get_deposit_root() override external view returns (bytes32) {... */\n    tag_31:\n        /* \"tenderly/bitcoincobra/tenderly/bitcoincobra/tenderly/project/Documents/DepositContract.sol\":5374:5381  bytes32 */\n      0x00\n        /* \"tenderly/bitcoincobra/tenderly/bitcoincobra/tenderly/project/Documents/DepositContract.sol\":5393:5405  bytes32 node */\n      dup1\n        /* \"tenderly/bitcoincobra/tenderly/bitcoincobra/tenderly/project/Documents/DepositContract.sol\":5415:5424  uint size */\n      0x00\n        /* \"tenderly/bitcoincobra/tenderly/bitcoincobra/tenderly/project/Documents/DepositContract.sol\":5427:5440  deposit_count */\n      sload(0x20)\n        /* \"tenderly/bitcoincobra/tenderly/bitcoincobra/tenderly/project/Documents/DepositContract.sol\":5415:5440  uint size = deposit_count */\n      swap1\n      pop\n        /* \"tenderly/bitcoincobra/tenderly/bitcoincobra/tenderly/project/Documents/DepositContract.sol\":5455:5466  uint height */\n      0x00\n        /* \"tenderly/bitcoincobra/tenderly/bitcoincobra/tenderly/project/Documents/DepositContract.sol\":5469:5470  0 */\n      dup1\n        /* \"tenderly/bitcoincobra/tenderly/bitcoincobra/tenderly/project/Documents/DepositContract.sol\":5455:5470  uint height = 0 */\n      swap1\n      pop\n        /* \"tenderly/bitcoincobra/tenderly/bitcoincobra/tenderly/project/Documents/DepositContract.sol\":5450:5751  for (uint height = 0; height < DEPOSIT_CONTRACT_TREE_DEPTH; height++) {... */\n    tag_123:\n        /* \"tenderly/bitcoincobra/tenderly/bitcoincobra/tenderly/project/Documents/DepositContract.sol\":4754:4756  32 */\n      0x20\n        /* \"tenderly/bitcoincobra/tenderly/bitcoincobra/tenderly/project/Documents/DepositContract.sol\":5472:5478  height */\n      dup2\n        /* \"tenderly/bitcoincobra/tenderly/bitcoincobra/tenderly/project/Documents/DepositContract.sol\":5472:5508  height < DEPOSIT_CONTRACT_TREE_DEPTH */\n      lt\n        /* \"tenderly/bitcoincobra/tenderly/bitcoincobra/tenderly/project/Documents/DepositContract.sol\":5450:5751  for (uint height = 0; height < DEPOSIT_CONTRACT_TREE_DEPTH; height++) {... */\n      iszero\n      tag_124\n      jumpi\n        /* \"tenderly/bitcoincobra/tenderly/bitcoincobra/tenderly/project/Documents/DepositContract.sol\":5552:5553  1 */\n      0x01\n        /* \"tenderly/bitcoincobra/tenderly/bitcoincobra/tenderly/project/Documents/DepositContract.sol\":5546:5547  1 */\n      dup1\n        /* \"tenderly/bitcoincobra/tenderly/bitcoincobra/tenderly/project/Documents/DepositContract.sol\":5539:5543  size */\n      dup4\n        /* \"tenderly/bitcoincobra/tenderly/bitcoincobra/tenderly/project/Documents/DepositContract.sol\":5539:5547  size & 1 */\n      and\n        /* \"tenderly/bitcoincobra/tenderly/bitcoincobra/tenderly/project/Documents/DepositContract.sol\":5538:5553  (size & 1) == 1 */\n      eq\n        /* \"tenderly/bitcoincobra/tenderly/bitcoincobra/tenderly/project/Documents/DepositContract.sol\":5534:5717  if ((size & 1) == 1)... */\n      iszero\n      tag_126\n      jumpi\n        /* \"tenderly/bitcoincobra/tenderly/bitcoincobra/tenderly/project/Documents/DepositContract.sol\":5578:5624  sha256(abi.encodePacked(branch[height], node)) */\n      0x02\n        /* \"tenderly/bitcoincobra/tenderly/bitcoincobra/tenderly/project/Documents/DepositContract.sol\":5602:5608  branch */\n      0x00\n        /* \"tenderly/bitcoincobra/tenderly/bitcoincobra/tenderly/project/Documents/DepositContract.sol\":5609:5615  height */\n      dup3\n        /* \"tenderly/bitcoincobra/tenderly/bitcoincobra/tenderly/project/Documents/DepositContract.sol\":5602:5616  branch[height] */\n      0x20\n      dup2\n      lt\n      tag_127\n      jumpi\n      invalid\n    tag_127:\n      add\n      sload\n        /* \"tenderly/bitcoincobra/tenderly/bitcoincobra/tenderly/project/Documents/DepositContract.sol\":5618:5622  node */\n      dup5\n        /* \"tenderly/bitcoincobra/tenderly/bitcoincobra/tenderly/project/Documents/DepositContract.sol\":5585:5623  abi.encodePacked(branch[height], node) */\n      add(0x20, mload(0x40))\n      dup1\n      dup4\n      dup2\n      mstore\n      0x20\n      add\n      dup3\n      dup2\n      mstore\n      0x20\n      add\n      swap3\n      pop\n      pop\n      pop\n      mload(0x40)\n      0x20\n      dup2\n      dup4\n      sub\n      sub\n      dup2\n      mstore\n      swap1\n      0x40\n      mstore\n        /* \"tenderly/bitcoincobra/tenderly/bitcoincobra/tenderly/project/Documents/DepositContract.sol\":5578:5624  sha256(abi.encodePacked(branch[height], node)) */\n      mload(0x40)\n      dup1\n      dup3\n      dup1\n      mload\n      swap1\n      0x20\n      add\n      swap1\n      dup1\n      dup4\n      dup4\n    tag_129:\n      0x20\n      dup4\n      lt\n      tag_131\n      jumpi\n      dup1\n      mload\n      dup3\n      mstore\n      0x20\n      dup3\n      add\n      swap2\n      pop\n      0x20\n      dup2\n      add\n      swap1\n      pop\n      0x20\n      dup4\n      sub\n      swap3\n      pop\n      jump(tag_129)\n    tag_131:\n      0x01\n      dup4\n      0x20\n      sub\n      0x0100\n      exp\n      sub\n      dup1\n      not\n      dup3\n      mload\n      and\n      dup2\n      dup5\n      mload\n      and\n      dup1\n      dup3\n      or\n      dup6\n      mstore\n      pop\n      pop\n      pop\n      pop\n      pop\n      pop\n      swap1\n      pop\n      add\n      swap2\n      pop\n      pop\n      0x20\n      mload(0x40)\n      dup1\n      dup4\n      sub\n      dup2\n      dup6\n      gas\n      staticcall\n      iszero\n      dup1\n      iszero\n      tag_133\n      jumpi\n      returndatasize\n      0x00\n      dup1\n      returndatacopy\n      revert(0x00, returndatasize)\n    tag_133:\n      pop\n      pop\n      pop\n      mload(0x40)\n      returndatasize\n      0x20\n      dup2\n      lt\n      iszero\n      tag_134\n      jumpi\n      0x00\n      dup1\n      revert\n    tag_134:\n      dup2\n      add\n      swap1\n      dup1\n      dup1\n      mload\n      swap1\n      0x20\n      add\n      swap1\n      swap3\n      swap2\n      swap1\n      pop\n      pop\n      pop\n        /* \"tenderly/bitcoincobra/tenderly/bitcoincobra/tenderly/project/Documents/DepositContract.sol\":5571:5624  node = sha256(abi.encodePacked(branch[height], node)) */\n      swap3\n      pop\n        /* \"tenderly/bitcoincobra/tenderly/bitcoincobra/tenderly/project/Documents/DepositContract.sol\":5534:5717  if ((size & 1) == 1)... */\n      jump(tag_135)\n    tag_126:\n        /* \"tenderly/bitcoincobra/tenderly/bitcoincobra/tenderly/project/Documents/DepositContract.sol\":5666:5717  sha256(abi.encodePacked(node, zero_hashes[height])) */\n      0x02\n        /* \"tenderly/bitcoincobra/tenderly/bitcoincobra/tenderly/project/Documents/DepositContract.sol\":5690:5694  node */\n      dup4\n        /* \"tenderly/bitcoincobra/tenderly/bitcoincobra/tenderly/project/Documents/DepositContract.sol\":5696:5707  zero_hashes */\n      0x21\n        /* \"tenderly/bitcoincobra/tenderly/bitcoincobra/tenderly/project/Documents/DepositContract.sol\":5708:5714  height */\n      dup4\n        /* \"tenderly/bitcoincobra/tenderly/bitcoincobra/tenderly/project/Documents/DepositContract.sol\":5696:5715  zero_hashes[height] */\n      0x20\n      dup2\n      lt\n      tag_136\n      jumpi\n      invalid\n    tag_136:\n      add\n      sload\n        /* \"tenderly/bitcoincobra/tenderly/bitcoincobra/tenderly/project/Documents/DepositContract.sol\":5673:5716  abi.encodePacked(node, zero_hashes[height]) */\n      add(0x20, mload(0x40))\n      dup1\n      dup4\n      dup2\n      mstore\n      0x20\n      add\n      dup3\n      dup2\n      mstore\n      0x20\n      add\n      swap3\n      pop\n      pop\n      pop\n      mload(0x40)\n      0x20\n      dup2\n      dup4\n      sub\n      sub\n      dup2\n      mstore\n      swap1\n      0x40\n      mstore\n        /* \"tenderly/bitcoincobra/tenderly/bitcoincobra/tenderly/project/Documents/DepositContract.sol\":5666:5717  sha256(abi.encodePacked(node, zero_hashes[height])) */\n      mload(0x40)\n      dup1\n      dup3\n      dup1\n      mload\n      swap1\n      0x20\n      add\n      swap1\n      dup1\n      dup4\n      dup4\n    tag_138:\n      0x20\n      dup4\n      lt\n      tag_140\n      jumpi\n      dup1\n      mload\n      dup3\n      mstore\n      0x20\n      dup3\n      add\n      swap2\n      pop\n      0x20\n      dup2\n      add\n      swap1\n      pop\n      0x20\n      dup4\n      sub\n      swap3\n      pop\n      jump(tag_138)\n    tag_140:\n      0x01\n      dup4\n      0x20\n      sub\n      0x0100\n      exp\n      sub\n      dup1\n      not\n      dup3\n      mload\n      and\n      dup2\n      dup5\n      mload\n      and\n      dup1\n      dup3\n      or\n      dup6\n      mstore\n      pop\n      pop\n      pop\n      pop\n      pop\n      pop\n      swap1\n      pop\n      add\n      swap2\n      pop\n      pop\n      0x20\n      mload(0x40)\n      dup1\n      dup4\n      sub\n      dup2\n      dup6\n      gas\n      staticcall\n      iszero\n      dup1\n      iszero\n      tag_142\n      jumpi\n      returndatasize\n      0x00\n      dup1\n      returndatacopy\n      revert(0x00, returndatasize)\n    tag_142:\n      pop\n      pop\n      pop\n      mload(0x40)\n      returndatasize\n      0x20\n      dup2\n      lt\n      iszero\n      tag_143\n      jumpi\n      0x00\n      dup1\n      revert\n    tag_143:\n      dup2\n      add\n      swap1\n      dup1\n      dup1\n      mload\n      swap1\n      0x20\n      add\n      swap1\n      swap3\n      swap2\n      swap1\n      pop\n      pop\n      pop\n        /* \"tenderly/bitcoincobra/tenderly/bitcoincobra/tenderly/project/Documents/DepositContract.sol\":5659:5717  node = sha256(abi.encodePacked(node, zero_hashes[height])) */\n      swap3\n      pop\n        /* \"tenderly/bitcoincobra/tenderly/bitcoincobra/tenderly/project/Documents/DepositContract.sol\":5534:5717  if ((size & 1) == 1)... */\n    tag_135:\n        /* \"tenderly/bitcoincobra/tenderly/bitcoincobra/tenderly/project/Documents/DepositContract.sol\":5739:5740  2 */\n      0x02\n        /* \"tenderly/bitcoincobra/tenderly/bitcoincobra/tenderly/project/Documents/DepositContract.sol\":5731:5740  size /= 2 */\n      dup3\n      dup2\n      tag_144\n      jumpi\n      invalid\n    tag_144:\n      div\n      swap2\n      pop\n        /* \"tenderly/bitcoincobra/tenderly/bitcoincobra/tenderly/project/Documents/DepositContract.sol\":5510:5518  height++ */\n      dup1\n      dup1\n      0x01\n      add\n      swap2\n      pop\n      pop\n        /* \"tenderly/bitcoincobra/tenderly/bitcoincobra/tenderly/project/Documents/DepositContract.sol\":5450:5751  for (uint height = 0; height < DEPOSIT_CONTRACT_TREE_DEPTH; height++) {... */\n      jump(tag_123)\n    tag_124:\n      pop\n        /* \"tenderly/bitcoincobra/tenderly/bitcoincobra/tenderly/project/Documents/DepositContract.sol\":5767:5899  sha256(abi.encodePacked(... */\n      0x02\n        /* \"tenderly/bitcoincobra/tenderly/bitcoincobra/tenderly/project/Documents/DepositContract.sol\":5804:5808  node */\n      dup3\n        /* \"tenderly/bitcoincobra/tenderly/bitcoincobra/tenderly/project/Documents/DepositContract.sol\":5822:5864  to_little_endian_64(uint64(deposit_count)) */\n      tag_145\n        /* \"tenderly/bitcoincobra/tenderly/bitcoincobra/tenderly/project/Documents/DepositContract.sol\":5849:5862  deposit_count */\n      sload(0x20)\n        /* \"tenderly/bitcoincobra/tenderly/bitcoincobra/tenderly/project/Documents/DepositContract.sol\":5822:5841  to_little_endian_64 */\n      tag_44\n        /* \"tenderly/bitcoincobra/tenderly/bitcoincobra/tenderly/project/Documents/DepositContract.sol\":5822:5864  to_little_endian_64(uint64(deposit_count)) */\n      jump\t// in\n    tag_145:\n        /* \"tenderly/bitcoincobra/tenderly/bitcoincobra/tenderly/project/Documents/DepositContract.sol\":5886:5887  0 */\n      0x00\n        /* \"tenderly/bitcoincobra/tenderly/bitcoincobra/tenderly/project/Documents/DepositContract.sol\":5878:5888  bytes24(0) */\n      0x40\n      shl\n        /* \"tenderly/bitcoincobra/tenderly/bitcoincobra/tenderly/project/Documents/DepositContract.sol\":5774:5898  abi.encodePacked(... */\n      add(0x20, mload(0x40))\n      dup1\n      dup5\n      dup2\n      mstore\n      0x20\n      add\n      dup4\n      dup1\n      mload\n      swap1\n      0x20\n      add\n      swap1\n      dup1\n      dup4\n      dup4\n    tag_146:\n      0x20\n      dup4\n      lt\n      tag_148\n      jumpi\n      dup1\n      mload\n      dup3\n      mstore\n      0x20\n      dup3\n      add\n      swap2\n      pop\n      0x20\n      dup2\n      add\n      swap1\n      pop\n      0x20\n      dup4\n      sub\n      swap3\n      pop\n      jump(tag_146)\n    tag_148:\n      0x01\n      dup4\n      0x20\n      sub\n      0x0100\n      exp\n      sub\n      dup1\n      not\n      dup3\n      mload\n      and\n      dup2\n      dup5\n      mload\n      and\n      dup1\n      dup3\n      or\n      dup6\n      mstore\n      pop\n      pop\n      pop\n      pop\n      pop\n      pop\n      swap1\n      pop\n      add\n      dup3\n      not(0xffffffffffffffff)\n      and\n      not(0xffffffffffffffff)\n      and\n      dup2\n      mstore\n      0x18\n      add\n      swap4\n      pop\n      pop\n      pop\n      pop\n      mload(0x40)\n      0x20\n      dup2\n      dup4\n      sub\n      sub\n      dup2\n      mstore\n      swap1\n      0x40\n      mstore\n        /* \"tenderly/bitcoincobra/tenderly/bitcoincobra/tenderly/project/Documents/DepositContract.sol\":5767:5899  sha256(abi.encodePacked(... */\n      mload(0x40)\n      dup1\n      dup3\n      dup1\n      mload\n      swap1\n      0x20\n      add\n      swap1\n      dup1\n      dup4\n      dup4\n    tag_149:\n      0x20\n      dup4\n      lt\n      tag_151\n      jumpi\n      dup1\n      mload\n      dup3\n      mstore\n      0x20\n      dup3\n      add\n      swap2\n      pop\n      0x20\n      dup2\n      add\n      swap1\n      pop\n      0x20\n      dup4\n      sub\n      swap3\n      pop\n      jump(tag_149)\n    tag_151:\n      0x01\n      dup4\n      0x20\n      sub\n      0x0100\n      exp\n      sub\n      dup1\n      not\n      dup3\n      mload\n      and\n      dup2\n      dup5\n      mload\n      and\n      dup1\n      dup3\n      or\n      dup6\n      mstore\n      pop\n      pop\n      pop\n      pop\n      pop\n      pop\n      swap1\n      pop\n      add\n      swap2\n      pop\n      pop\n      0x20\n      mload(0x40)\n      dup1\n      dup4\n      sub\n      dup2\n      dup6\n      gas\n      staticcall\n      iszero\n      dup1\n      iszero\n      tag_153\n      jumpi\n      returndatasize\n      0x00\n      dup1\n      returndatacopy\n      revert(0x00, returndatasize)\n    tag_153:\n      pop\n      pop\n      pop\n      mload(0x40)\n      returndatasize\n      0x20\n      dup2\n      lt\n      iszero\n      tag_154\n      jumpi\n      0x00\n      dup1\n      revert\n    tag_154:\n      dup2\n      add\n      swap1\n      dup1\n      dup1\n      mload\n      swap1\n      0x20\n      add\n      swap1\n      swap3\n      swap2\n      swap1\n      pop\n      pop\n      pop\n        /* \"tenderly/bitcoincobra/tenderly/bitcoincobra/tenderly/project/Documents/DepositContract.sol\":5760:5899  return sha256(abi.encodePacked(... */\n      swap3\n      pop\n      pop\n      pop\n        /* \"tenderly/bitcoincobra/tenderly/bitcoincobra/tenderly/project/Documents/DepositContract.sol\":5314:5906  function get_deposit_root() override external view returns (bytes32) {... */\n      swap1\n      jump\t// out\n        /* \"tenderly/bitcoincobra/tenderly/bitcoincobra/tenderly/project/Documents/DepositContract.sol\":9022:9489  function to_little_endian_64(uint64 value) internal pure returns (bytes memory ret) {... */\n    tag_44:\n        /* \"tenderly/bitcoincobra/tenderly/bitcoincobra/tenderly/project/Documents/DepositContract.sol\":9088:9104  bytes memory ret */\n      0x60\n        /* \"tenderly/bitcoincobra/tenderly/bitcoincobra/tenderly/project/Documents/DepositContract.sol\":9132:9133  8 */\n      0x08\n        /* \"tenderly/bitcoincobra/tenderly/bitcoincobra/tenderly/project/Documents/DepositContract.sol\":9122:9134  new bytes(8) */\n      0xffffffffffffffff\n      dup2\n      gt\n      dup1\n      iszero\n      tag_156\n      jumpi\n      0x00\n      dup1\n      revert\n    tag_156:\n      pop\n      mload(0x40)\n      swap1\n      dup1\n      dup3\n      mstore\n      dup1\n      0x1f\n      add\n      not(0x1f)\n      and\n      0x20\n      add\n      dup3\n      add\n      0x40\n      mstore\n      dup1\n      iszero\n      tag_157\n      jumpi\n      dup2\n      0x20\n      add\n      0x01\n      dup3\n      mul\n      dup1\n      calldatasize\n      dup4\n      calldatacopy\n      dup1\n      dup3\n      add\n      swap2\n      pop\n      pop\n      swap1\n      pop\n    tag_157:\n      pop\n        /* \"tenderly/bitcoincobra/tenderly/bitcoincobra/tenderly/project/Documents/DepositContract.sol\":9116:9134  ret = new bytes(8) */\n      swap1\n      pop\n        /* \"tenderly/bitcoincobra/tenderly/bitcoincobra/tenderly/project/Documents/DepositContract.sol\":9144:9161  bytes8 bytesValue */\n      0x00\n        /* \"tenderly/bitcoincobra/tenderly/bitcoincobra/tenderly/project/Documents/DepositContract.sol\":9171:9176  value */\n      dup3\n        /* \"tenderly/bitcoincobra/tenderly/bitcoincobra/tenderly/project/Documents/DepositContract.sol\":9164:9177  bytes8(value) */\n      0xc0\n      shl\n        /* \"tenderly/bitcoincobra/tenderly/bitcoincobra/tenderly/project/Documents/DepositContract.sol\":9144:9177  bytes8 bytesValue = bytes8(value) */\n      swap1\n      pop\n        /* \"tenderly/bitcoincobra/tenderly/bitcoincobra/tenderly/project/Documents/DepositContract.sol\":9245:9255  bytesValue */\n      dup1\n        /* \"tenderly/bitcoincobra/tenderly/bitcoincobra/tenderly/project/Documents/DepositContract.sol\":9256:9257  7 */\n      0x07\n        /* \"tenderly/bitcoincobra/tenderly/bitcoincobra/tenderly/project/Documents/DepositContract.sol\":9245:9258  bytesValue[7] */\n      0x08\n      dup2\n      lt\n      tag_158\n      jumpi\n      invalid\n    tag_158:\n      byte\n      0xf8\n      shl\n        /* \"tenderly/bitcoincobra/tenderly/bitcoincobra/tenderly/project/Documents/DepositContract.sol\":9236:9239  ret */\n      dup3\n        /* \"tenderly/bitcoincobra/tenderly/bitcoincobra/tenderly/project/Documents/DepositContract.sol\":9240:9241  0 */\n      0x00\n        /* \"tenderly/bitcoincobra/tenderly/bitcoincobra/tenderly/project/Documents/DepositContract.sol\":9236:9242  ret[0] */\n      dup2\n      mload\n      dup2\n      lt\n      tag_159\n      jumpi\n      invalid\n    tag_159:\n      0x20\n      add\n      add\n        /* \"tenderly/bitcoincobra/tenderly/bitcoincobra/tenderly/project/Documents/DepositContract.sol\":9236:9258  ret[0] = bytesValue[7] */\n      swap1\n      not(0xffffffffffffffffffffffffffffffffffffffffffffffffffffffffffffff)\n      and\n      swap1\n      dup2\n      0x00\n      byte\n      swap1\n      mstore8\n      pop\n        /* \"tenderly/bitcoincobra/tenderly/bitcoincobra/tenderly/project/Documents/DepositContract.sol\":9277:9287  bytesValue */\n      dup1\n        /* \"tenderly/bitcoincobra/tenderly/bitcoincobra/tenderly/project/Documents/DepositContract.sol\":9288:9289  6 */\n      0x06\n        /* \"tenderly/bitcoincobra/tenderly/bitcoincobra/tenderly/project/Documents/DepositContract.sol\":9277:9290  bytesValue[6] */\n      0x08\n      dup2\n      lt\n      tag_160\n      jumpi\n      invalid\n    tag_160:\n      byte\n      0xf8\n      shl\n        /* \"tenderly/bitcoincobra/tenderly/bitcoincobra/tenderly/project/Documents/DepositContract.sol\":9268:9271  ret */\n      dup3\n        /* \"tenderly/bitcoincobra/tenderly/bitcoincobra/tenderly/project/Documents/DepositContract.sol\":9272:9273  1 */\n      0x01\n        /* \"tenderly/bitcoincobra/tenderly/bitcoincobra/tenderly/project/Documents/DepositContract.sol\":9268:9274  ret[1] */\n      dup2\n      mload\n      dup2\n      lt\n      tag_161\n      jumpi\n      invalid\n    tag_161:\n      0x20\n      add\n      add\n        /* \"tenderly/bitcoincobra/tenderly/bitcoincobra/tenderly/project/Documents/DepositContract.sol\":9268:9290  ret[1] = bytesValue[6] */\n      swap1\n      not(0xffffffffffffffffffffffffffffffffffffffffffffffffffffffffffffff)\n      and\n      swap1\n      dup2\n      0x00\n      byte\n      swap1\n      mstore8\n      pop\n        /* \"tenderly/bitcoincobra/tenderly/bitcoincobra/tenderly/project/Documents/DepositContract.sol\":9309:9319  bytesValue */\n      dup1\n        /* \"tenderly/bitcoincobra/tenderly/bitcoincobra/tenderly/project/Documents/DepositContract.sol\":9320:9321  5 */\n      0x05\n        /* \"tenderly/bitcoincobra/tenderly/bitcoincobra/tenderly/project/Documents/DepositContract.sol\":9309:9322  bytesValue[5] */\n      0x08\n      dup2\n      lt\n      tag_162\n      jumpi\n      invalid\n    tag_162:\n      byte\n      0xf8\n      shl\n        /* \"tenderly/bitcoincobra/tenderly/bitcoincobra/tenderly/project/Documents/DepositContract.sol\":9300:9303  ret */\n      dup3\n        /* \"tenderly/bitcoincobra/tenderly/bitcoincobra/tenderly/project/Documents/DepositContract.sol\":9304:9305  2 */\n      0x02\n        /* \"tenderly/bitcoincobra/tenderly/bitcoincobra/tenderly/project/Documents/DepositContract.sol\":9300:9306  ret[2] */\n      dup2\n      mload\n      dup2\n      lt\n      tag_163\n      jumpi\n      invalid\n    tag_163:\n      0x20\n      add\n      add\n        /* \"tenderly/bitcoincobra/tenderly/bitcoincobra/tenderly/project/Documents/DepositContract.sol\":9300:9322  ret[2] = bytesValue[5] */\n      swap1\n      not(0xffffffffffffffffffffffffffffffffffffffffffffffffffffffffffffff)\n      and\n      swap1\n      dup2\n      0x00\n      byte\n      swap1\n      mstore8\n      pop\n        /* \"tenderly/bitcoincobra/tenderly/bitcoincobra/tenderly/project/Documents/DepositContract.sol\":9341:9351  bytesValue */\n      dup1\n        /* \"tenderly/bitcoincobra/tenderly/bitcoincobra/tenderly/project/Documents/DepositContract.sol\":9352:9353  4 */\n      0x04\n        /* \"tenderly/bitcoincobra/tenderly/bitcoincobra/tenderly/project/Documents/DepositContract.sol\":9341:9354  bytesValue[4] */\n      0x08\n      dup2\n      lt\n      tag_164\n      jumpi\n      invalid\n    tag_164:\n      byte\n      0xf8\n      shl\n        /* \"tenderly/bitcoincobra/tenderly/bitcoincobra/tenderly/project/Documents/DepositContract.sol\":9332:9335  ret */\n      dup3\n        /* \"tenderly/bitcoincobra/tenderly/bitcoincobra/tenderly/project/Documents/DepositContract.sol\":9336:9337  3 */\n      0x03\n        /* \"tenderly/bitcoincobra/tenderly/bitcoincobra/tenderly/project/Documents/DepositContract.sol\":9332:9338  ret[3] */\n      dup2\n      mload\n      dup2\n      lt\n      tag_165\n      jumpi\n      invalid\n    tag_165:\n      0x20\n      add\n      add\n        /* \"tenderly/bitcoincobra/tenderly/bitcoincobra/tenderly/project/Documents/DepositContract.sol\":9332:9354  ret[3] = bytesValue[4] */\n      swap1\n      not(0xffffffffffffffffffffffffffffffffffffffffffffffffffffffffffffff)\n      and\n      swap1\n      dup2\n      0x00\n      byte\n      swap1\n      mstore8\n      pop\n        /* \"tenderly/bitcoincobra/tenderly/bitcoincobra/tenderly/project/Documents/DepositContract.sol\":9373:9383  bytesValue */\n      dup1\n        /* \"tenderly/bitcoincobra/tenderly/bitcoincobra/tenderly/project/Documents/DepositContract.sol\":9384:9385  3 */\n      0x03\n        /* \"tenderly/bitcoincobra/tenderly/bitcoincobra/tenderly/project/Documents/DepositContract.sol\":9373:9386  bytesValue[3] */\n      0x08\n      dup2\n      lt\n      tag_166\n      jumpi\n      invalid\n    tag_166:\n      byte\n      0xf8\n      shl\n        /* \"tenderly/bitcoincobra/tenderly/bitcoincobra/tenderly/project/Documents/DepositContract.sol\":9364:9367  ret */\n      dup3\n        /* \"tenderly/bitcoincobra/tenderly/bitcoincobra/tenderly/project/Documents/DepositContract.sol\":9368:9369  4 */\n      0x04\n        /* \"tenderly/bitcoincobra/tenderly/bitcoincobra/tenderly/project/Documents/DepositContract.sol\":9364:9370  ret[4] */\n      dup2\n      mload\n      dup2\n      lt\n      tag_167\n      jumpi\n      invalid\n    tag_167:\n      0x20\n      add\n      add\n        /* \"tenderly/bitcoincobra/tenderly/bitcoincobra/tenderly/project/Documents/DepositContract.sol\":9364:9386  ret[4] = bytesValue[3] */\n      swap1\n      not(0xffffffffffffffffffffffffffffffffffffffffffffffffffffffffffffff)\n      and\n      swap1\n      dup2\n      0x00\n      byte\n      swap1\n      mstore8\n      pop\n        /* \"tenderly/bitcoincobra/tenderly/bitcoincobra/tenderly/project/Documents/DepositContract.sol\":9405:9415  bytesValue */\n      dup1\n        /* \"tenderly/bitcoincobra/tenderly/bitcoincobra/tenderly/project/Documents/DepositContract.sol\":9416:9417  2 */\n      0x02\n        /* \"tenderly/bitcoincobra/tenderly/bitcoincobra/tenderly/project/Documents/DepositContract.sol\":9405:9418  bytesValue[2] */\n      0x08\n      dup2\n      lt\n      tag_168\n      jumpi\n      invalid\n    tag_168:\n      byte\n      0xf8\n      shl\n        /* \"tenderly/bitcoincobra/tenderly/bitcoincobra/tenderly/project/Documents/DepositContract.sol\":9396:9399  ret */\n      dup3\n        /* \"tenderly/bitcoincobra/tenderly/bitcoincobra/tenderly/project/Documents/DepositContract.sol\":9400:9401  5 */\n      0x05\n        /* \"tenderly/bitcoincobra/tenderly/bitcoincobra/tenderly/project/Documents/DepositContract.sol\":9396:9402  ret[5] */\n      dup2\n      mload\n      dup2\n      lt\n      tag_169\n      jumpi\n      invalid\n    tag_169:\n      0x20\n      add\n      add\n        /* \"tenderly/bitcoincobra/tenderly/bitcoincobra/tenderly/project/Documents/DepositContract.sol\":9396:9418  ret[5] = bytesValue[2] */\n      swap1\n      not(0xffffffffffffffffffffffffffffffffffffffffffffffffffffffffffffff)\n      and\n      swap1\n      dup2\n      0x00\n      byte\n      swap1\n      mstore8\n      pop\n        /* \"tenderly/bitcoincobra/tenderly/bitcoincobra/tenderly/project/Documents/DepositContract.sol\":9437:9447  bytesValue */\n      dup1\n        /* \"tenderly/bitcoincobra/tenderly/bitcoincobra/tenderly/project/Documents/DepositContract.sol\":9448:9449  1 */\n      0x01\n        /* \"tenderly/bitcoincobra/tenderly/bitcoincobra/tenderly/project/Documents/DepositContract.sol\":9437:9450  bytesValue[1] */\n      0x08\n      dup2\n      lt\n      tag_170\n      jumpi\n      invalid\n    tag_170:\n      byte\n      0xf8\n      shl\n        /* \"tenderly/bitcoincobra/tenderly/bitcoincobra/tenderly/project/Documents/DepositContract.sol\":9428:9431  ret */\n      dup3\n        /* \"tenderly/bitcoincobra/tenderly/bitcoincobra/tenderly/project/Documents/DepositContract.sol\":9432:9433  6 */\n      0x06\n        /* \"tenderly/bitcoincobra/tenderly/bitcoincobra/tenderly/project/Documents/DepositContract.sol\":9428:9434  ret[6] */\n      dup2\n      mload\n      dup2\n      lt\n      tag_171\n      jumpi\n      invalid\n    tag_171:\n      0x20\n      add\n      add\n        /* \"tenderly/bitcoincobra/tenderly/bitcoincobra/tenderly/project/Documents/DepositContract.sol\":9428:9450  ret[6] = bytesValue[1] */\n      swap1\n      not(0xffffffffffffffffffffffffffffffffffffffffffffffffffffffffffffff)\n      and\n      swap1\n      dup2\n      0x00\n      byte\n      swap1\n      mstore8\n      pop\n        /* \"tenderly/bitcoincobra/tenderly/bitcoincobra/tenderly/project/Documents/DepositContract.sol\":9469:9479  bytesValue */\n      dup1\n        /* \"tenderly/bitcoincobra/tenderly/bitcoincobra/tenderly/project/Documents/DepositContract.sol\":9480:9481  0 */\n      0x00\n        /* \"tenderly/bitcoincobra/tenderly/bitcoincobra/tenderly/project/Documents/DepositContract.sol\":9469:9482  bytesValue[0] */\n      0x08\n      dup2\n      lt\n      tag_172\n      jumpi\n      invalid\n    tag_172:\n      byte\n      0xf8\n      shl\n        /* \"tenderly/bitcoincobra/tenderly/bitcoincobra/tenderly/project/Documents/DepositContract.sol\":9460:9463  ret */\n      dup3\n        /* \"tenderly/bitcoincobra/tenderly/bitcoincobra/tenderly/project/Documents/DepositContract.sol\":9464:9465  7 */\n      0x07\n        /* \"tenderly/bitcoincobra/tenderly/bitcoincobra/tenderly/project/Documents/DepositContract.sol\":9460:9466  ret[7] */\n      dup2\n      mload\n      dup2\n      lt\n      tag_173\n      jumpi\n      invalid\n    tag_173:\n      0x20\n      add\n      add\n        /* \"tenderly/bitcoincobra/tenderly/bitcoincobra/tenderly/project/Documents/DepositContract.sol\":9460:9482  ret[7] = bytesValue[0] */\n      swap1\n      not(0xffffffffffffffffffffffffffffffffffffffffffffffffffffffffffffff)\n      and\n      swap1\n      dup2\n      0x00\n      byte\n      swap1\n      mstore8\n      pop\n        /* \"tenderly/bitcoincobra/tenderly/bitcoincobra/tenderly/project/Documents/DepositContract.sol\":9022:9489  function to_little_endian_64(uint64 value) internal pure returns (bytes memory ret) {... */\n      pop\n      swap2\n      swap1\n      pop\n      jump\t// out\n        /* \"--CODEGEN--\":5:323   */\n    tag_61:\n      0x00\n      dup1\n        /* \"--CODEGEN--\":155:163   */\n      dup6\n        /* \"--CODEGEN--\":143:153   */\n      dup6\n        /* \"--CODEGEN--\":140:164   */\n      gt\n        /* \"--CODEGEN--\":137:139   */\n      iszero\n      tag_176\n      jumpi\n        /* \"--CODEGEN--\":177:178   */\n      0x00\n        /* \"--CODEGEN--\":174:175   */\n      dup1\n        /* \"--CODEGEN--\":167:179   */\n      revert\n        /* \"--CODEGEN--\":137:139   */\n    tag_176:\n        /* \"--CODEGEN--\":202:208   */\n      dup4\n        /* \"--CODEGEN--\":192:200   */\n      dup7\n        /* \"--CODEGEN--\":189:209   */\n      gt\n        /* \"--CODEGEN--\":186:188   */\n      iszero\n      tag_177\n      jumpi\n        /* \"--CODEGEN--\":222:223   */\n      0x00\n        /* \"--CODEGEN--\":219:220   */\n      dup1\n        /* \"--CODEGEN--\":212:224   */\n      revert\n        /* \"--CODEGEN--\":186:188   */\n    tag_177:\n        /* \"--CODEGEN--\":272:273   */\n      0x01\n        /* \"--CODEGEN--\":260:270   */\n      dup6\n        /* \"--CODEGEN--\":256:274   */\n      mul\n        /* \"--CODEGEN--\":248:254   */\n      dup4\n        /* \"--CODEGEN--\":244:275   */\n      add\n        /* \"--CODEGEN--\":231:275   */\n      swap2\n      pop\n        /* \"--CODEGEN--\":307:317   */\n      dup5\n        /* \"--CODEGEN--\":297:305   */\n      dup7\n        /* \"--CODEGEN--\":293:318   */\n      sub\n        /* \"--CODEGEN--\":280:318   */\n      swap1\n      pop\n        /* \"--CODEGEN--\":131:323   */\n      swap5\n      pop\n      swap5\n      swap3\n      pop\n      pop\n      pop\n      jump\t// out\n    stop\n    data_122aa4bcac592fd535cb6d2558ebbf28083cd32a46ad577d847ea313cd3a6be7 4465706f736974436f6e74726163743a206d65726b6c6520747265652066756c6c\n    data_18a67971568b2dbad4353dfdc385098cc004c2a5070a439e010bb919d851babb 4465706f736974436f6e74726163743a207265636f6e7374727563746564204465706f7369744461746120646f6573206e6f74206d6174636820737570706c696564206465706f7369745f646174615f726f6f74\n    data_747182c86d19950fc1e3554e7b3e3a1972fcfdcf01419aa5598a57f4869840e0 4465706f736974436f6e74726163743a20696e76616c6964207769746864726177616c5f63726564656e7469616c73206c656e677468\n    data_7db03c60fbfd1382397614fc537e65f67f687dbb18307bed297bda7f864590e0 4465706f736974436f6e74726163743a206465706f7369742076616c7565206e6f74206d756c7469706c65206f662067776569\n    data_c3b50b094eada99b5a9dfa8cfadfa82355edd40e0591c544071d0112172c4c5e 4465706f736974436f6e74726163743a20696e76616c6964207075626b6579206c656e677468\n    data_c445cee017c8884423c583c4e1697a8e774197f1748cc887aa73775ef891882f 4465706f736974436f6e74726163743a206465706f7369742076616c756520746f6f2068696768\n    data_d4d9a14975cc31a7dc18afc82ee6e59efa15377b990098eeaab4cc403f9d1217 4465706f736974436f6e74726163743a206465706f7369742076616c756520746f6f206c6f77\n    data_e15de1a983e2181dc403952307f19cbe1ac366f85accb46ba7ec34e71736287b 4465706f736974436f6e74726163743a20696e76616c6964207369676e6174757265206c656e677468\n\n    auxdata: 0xa2646970667358221220cd671c00cdbb9cf942c9225d9549d02138d12e42ec523912484fad896b1577e964736f6c634300060b0033\n}\n",
				"bytecode": {
					"linkReferences": {},
					"object": "608060405234801561001057600080fd5b5060008090505b60016020038110156101265760026021826020811061003257fe5b01546021836020811061004157fe5b015460405160200180838152602001828152602001925050506040516020818303038152906040526040518082805190602001908083835b6020831061009c5780518252602082019150602081019050602083039250610079565b6001836020036101000a038019825116818451168082178552505050505050905001915050602060405180830381855afa1580156100de573d6000803e3d6000fd5b5050506040513d60208110156100f357600080fd5b81019080805190602001909291905050506021600183016020811061011457fe5b01819055508080600101915050610017565b506117bd80620001376000396000f3fe60806040526004361061003f5760003560e01c806301ffc9a71461004457806322895118146100b6578063621fd130146101e3578063c5f2892f14610273575b600080fd5b34801561005057600080fd5b5061009c6004803603602081101561006757600080fd5b8101908080357bffffffffffffffffffffffffffffffffffffffffffffffffffffffff1916906020019092919050505061029e565b604051808215151515815260200191505060405180910390f35b6101e1600480360360808110156100cc57600080fd5b81019080803590602001906401000000008111156100e957600080fd5b8201836020820111156100fb57600080fd5b8035906020019184600183028401116401000000008311171561011d57600080fd5b90919293919293908035906020019064010000000081111561013e57600080fd5b82018360208201111561015057600080fd5b8035906020019184600183028401116401000000008311171561017257600080fd5b90919293919293908035906020019064010000000081111561019357600080fd5b8201836020820111156101a557600080fd5b803590602001918460018302840111640100000000831117156101c757600080fd5b909192939192939080359060200190929190505050610370565b005b3480156101ef57600080fd5b506101f8610fd0565b6040518080602001828103825283818151815260200191508051906020019080838360005b8381101561023857808201518184015260208101905061021d565b50505050905090810190601f1680156102655780820380516001836020036101000a031916815260200191505b509250505060405180910390f35b34801561027f57600080fd5b50610288610fe2565b6040518082815260200191505060405180910390f35b60007f01ffc9a7000000000000000000000000000000000000000000000000000000007bffffffffffffffffffffffffffffffffffffffffffffffffffffffff1916827bffffffffffffffffffffffffffffffffffffffffffffffffffffffff1916148061036957507f85640907000000000000000000000000000000000000000000000000000000007bffffffffffffffffffffffffffffffffffffffffffffffffffffffff1916827bffffffffffffffffffffffffffffffffffffffffffffffffffffffff1916145b9050919050565b603087879050146103cc576040517f08c379a00000000000000000000000000000000000000000000000000000000081526004018080602001828103825260268152602001806116ec6026913960400191505060405180910390fd5b60208585905014610428576040517f08c379a00000000000000000000000000000000000000000000000000000000081526004018080602001828103825260368152602001806116836036913960400191505060405180910390fd5b60608383905014610484576040517f08c379a000000000000000000000000000000000000000000000000000000000815260040180806020018281038252602981526020018061175f6029913960400191505060405180910390fd5b670de0b6b3a76400003410156104e5576040517f08c379a00000000000000000000000000000000000000000000000000000000081526004018080602001828103825260268152602001806117396026913960400191505060405180910390fd5b6000633b9aca0034816104f457fe5b061461054b576040517f08c379a00000000000000000000000000000000000000000000000000000000081526004018080602001828103825260338152602001806116b96033913960400191505060405180910390fd5b6000633b9aca00348161055a57fe5b04905067ffffffffffffffff80168111156105c0576040517f08c379a00000000000000000000000000000000000000000000000000000000081526004018080602001828103825260278152602001806117126027913960400191505060405180910390fd5b60606105cb82611314565b90507f649bbc62d0e31342afea4e5cd82d4049e7e1ee912fc0889aa790803be39038c589898989858a8a610600602054611314565b60405180806020018060200180602001806020018060200186810386528e8e82818152602001925080828437600081840152601f19601f82011690508083019250505086810385528c8c82818152602001925080828437600081840152601f19601f82011690508083019250505086810384528a818151815260200191508051906020019080838360005b838110156106a657808201518184015260208101905061068b565b50505050905090810190601f1680156106d35780820380516001836020036101000a031916815260200191505b508681038352898982818152602001925080828437600081840152601f19601f820116905080830192505050868103825287818151815260200191508051906020019080838360005b8381101561073757808201518184015260208101905061071c565b50505050905090810190601f1680156107645780820380516001836020036101000a031916815260200191505b509d505050505050505050505050505060405180910390a1600060028a8a600060801b6040516020018084848082843780830192505050826fffffffffffffffffffffffffffffffff19166fffffffffffffffffffffffffffffffff1916815260100193505050506040516020818303038152906040526040518082805190602001908083835b6020831061080e57805182526020820191506020810190506020830392506107eb565b6001836020036101000a038019825116818451168082178552505050505050905001915050602060405180830381855afa158015610850573d6000803e3d6000fd5b5050506040513d602081101561086557600080fd5b8101908080519060200190929190505050905060006002808888600090604092610891939291906115da565b6040516020018083838082843780830192505050925050506040516020818303038152906040526040518082805190602001908083835b602083106108eb57805182526020820191506020810190506020830392506108c8565b6001836020036101000a038019825116818451168082178552505050505050905001915050602060405180830381855afa15801561092d573d6000803e3d6000fd5b5050506040513d602081101561094257600080fd5b8101908080519060200190929190505050600289896040908092610968939291906115da565b6000801b604051602001808484808284378083019250505082815260200193505050506040516020818303038152906040526040518082805190602001908083835b602083106109cd57805182526020820191506020810190506020830392506109aa565b6001836020036101000a038019825116818451168082178552505050505050905001915050602060405180830381855afa158015610a0f573d6000803e3d6000fd5b5050506040513d6020811015610a2457600080fd5b810190808051906020019092919050505060405160200180838152602001828152602001925050506040516020818303038152906040526040518082805190602001908083835b60208310610a8e5780518252602082019150602081019050602083039250610a6b565b6001836020036101000a038019825116818451168082178552505050505050905001915050602060405180830381855afa158015610ad0573d6000803e3d6000fd5b5050506040513d6020811015610ae557600080fd5b810190808051906020019092919050505090506000600280848c8c604051602001808481526020018383808284378083019250505093505050506040516020818303038152906040526040518082805190602001908083835b60208310610b615780518252602082019150602081019050602083039250610b3e565b6001836020036101000a038019825116818451168082178552505050505050905001915050602060405180830381855afa158015610ba3573d6000803e3d6000fd5b5050506040513d6020811015610bb857600080fd5b8101908080519060200190929190505050600286600060401b866040516020018084805190602001908083835b60208310610c085780518252602082019150602081019050602083039250610be5565b6001836020036101000a0380198251168184511680821785525050505050509050018367ffffffffffffffff191667ffffffffffffffff1916815260180182815260200193505050506040516020818303038152906040526040518082805190602001908083835b60208310610c935780518252602082019150602081019050602083039250610c70565b6001836020036101000a038019825116818451168082178552505050505050905001915050602060405180830381855afa158015610cd5573d6000803e3d6000fd5b5050506040513d6020811015610cea57600080fd5b810190808051906020019092919050505060405160200180838152602001828152602001925050506040516020818303038152906040526040518082805190602001908083835b60208310610d545780518252602082019150602081019050602083039250610d31565b6001836020036101000a038019825116818451168082178552505050505050905001915050602060405180830381855afa158015610d96573d6000803e3d6000fd5b5050506040513d6020811015610dab57600080fd5b81019080805190602001909291905050509050858114610e16576040517f08c379a000000000000000000000000000000000000000000000000000000000815260040180806020018281038252605481526020018061162f6054913960600191505060405180910390fd5b6001602060020a0360205410610e77576040517f08c379a000000000000000000000000000000000000000000000000000000000815260040180806020018281038252602181526020018061160e6021913960400191505060405180910390fd5b60016020600082825401925050819055506000602054905060008090505b6020811015610fb75760018083161415610ec8578260008260208110610eb757fe5b018190555050505050505050610fc7565b600260008260208110610ed757fe5b01548460405160200180838152602001828152602001925050506040516020818303038152906040526040518082805190602001908083835b60208310610f335780518252602082019150602081019050602083039250610f10565b6001836020036101000a038019825116818451168082178552505050505050905001915050602060405180830381855afa158015610f75573d6000803e3d6000fd5b5050506040513d6020811015610f8a57600080fd5b8101908080519060200190929190505050925060028281610fa757fe5b0491508080600101915050610e95565b506000610fc057fe5b5050505050505b50505050505050565b6060610fdd602054611314565b905090565b6000806000602054905060008090505b60208110156111d057600180831614156110e05760026000826020811061101557fe5b01548460405160200180838152602001828152602001925050506040516020818303038152906040526040518082805190602001908083835b60208310611071578051825260208201915060208101905060208303925061104e565b6001836020036101000a038019825116818451168082178552505050505050905001915050602060405180830381855afa1580156110b3573d6000803e3d6000fd5b5050506040513d60208110156110c857600080fd5b810190808051906020019092919050505092506111b6565b600283602183602081106110f057fe5b015460405160200180838152602001828152602001925050506040516020818303038152906040526040518082805190602001908083835b6020831061114b5780518252602082019150602081019050602083039250611128565b6001836020036101000a038019825116818451168082178552505050505050905001915050602060405180830381855afa15801561118d573d6000803e3d6000fd5b5050506040513d60208110156111a257600080fd5b810190808051906020019092919050505092505b600282816111c057fe5b0491508080600101915050610ff2565b506002826111df602054611314565b600060401b6040516020018084815260200183805190602001908083835b6020831061122057805182526020820191506020810190506020830392506111fd565b6001836020036101000a0380198251168184511680821785525050505050509050018267ffffffffffffffff191667ffffffffffffffff1916815260180193505050506040516020818303038152906040526040518082805190602001908083835b602083106112a55780518252602082019150602081019050602083039250611282565b6001836020036101000a038019825116818451168082178552505050505050905001915050602060405180830381855afa1580156112e7573d6000803e3d6000fd5b5050506040513d60208110156112fc57600080fd5b81019080805190602001909291905050509250505090565b6060600867ffffffffffffffff8111801561132e57600080fd5b506040519080825280601f01601f1916602001820160405280156113615781602001600182028036833780820191505090505b50905060008260c01b90508060076008811061137957fe5b1a60f81b8260008151811061138a57fe5b60200101907effffffffffffffffffffffffffffffffffffffffffffffffffffffffffffff1916908160001a905350806006600881106113c657fe5b1a60f81b826001815181106113d757fe5b60200101907effffffffffffffffffffffffffffffffffffffffffffffffffffffffffffff1916908160001a9053508060056008811061141357fe5b1a60f81b8260028151811061142457fe5b60200101907effffffffffffffffffffffffffffffffffffffffffffffffffffffffffffff1916908160001a9053508060046008811061146057fe5b1a60f81b8260038151811061147157fe5b60200101907effffffffffffffffffffffffffffffffffffffffffffffffffffffffffffff1916908160001a905350806003600881106114ad57fe5b1a60f81b826004815181106114be57fe5b60200101907effffffffffffffffffffffffffffffffffffffffffffffffffffffffffffff1916908160001a905350806002600881106114fa57fe5b1a60f81b8260058151811061150b57fe5b60200101907effffffffffffffffffffffffffffffffffffffffffffffffffffffffffffff1916908160001a9053508060016008811061154757fe5b1a60f81b8260068151811061155857fe5b60200101907effffffffffffffffffffffffffffffffffffffffffffffffffffffffffffff1916908160001a9053508060006008811061159457fe5b1a60f81b826007815181106115a557fe5b60200101907effffffffffffffffffffffffffffffffffffffffffffffffffffffffffffff1916908160001a90535050919050565b600080858511156115ea57600080fd5b838611156115f757600080fd5b600185028301915084860390509450949250505056fe4465706f736974436f6e74726163743a206d65726b6c6520747265652066756c6c4465706f736974436f6e74726163743a207265636f6e7374727563746564204465706f7369744461746120646f6573206e6f74206d6174636820737570706c696564206465706f7369745f646174615f726f6f744465706f736974436f6e74726163743a20696e76616c6964207769746864726177616c5f63726564656e7469616c73206c656e6774684465706f736974436f6e74726163743a206465706f7369742076616c7565206e6f74206d756c7469706c65206f6620677765694465706f736974436f6e74726163743a20696e76616c6964207075626b6579206c656e6774684465706f736974436f6e74726163743a206465706f7369742076616c756520746f6f20686967684465706f736974436f6e74726163743a206465706f7369742076616c756520746f6f206c6f774465706f736974436f6e74726163743a20696e76616c6964207369676e6174757265206c656e677468a2646970667358221220cd671c00cdbb9cf942c9225d9549d02138d12e42ec523912484fad896b1577e964736f6c634300060b0033",
					"opcodes": "PUSH1 0x80 PUSH1 0x40 MSTORE CALLVALUE DUP1 ISZERO PUSH2 0x10 JUMPI PUSH1 0x0 DUP1 REVERT JUMPDEST POP PUSH1 0x0 DUP1 SWAP1 POP JUMPDEST PUSH1 0x1 PUSH1 0x20 SUB DUP2 LT ISZERO PUSH2 0x126 JUMPI PUSH1 0x2 PUSH1 0x21 DUP3 PUSH1 0x20 DUP2 LT PUSH2 0x32 JUMPI INVALID JUMPDEST ADD SLOAD PUSH1 0x21 DUP4 PUSH1 0x20 DUP2 LT PUSH2 0x41 JUMPI INVALID JUMPDEST ADD SLOAD PUSH1 0x40 MLOAD PUSH1 0x20 ADD DUP1 DUP4 DUP2 MSTORE PUSH1 0x20 ADD DUP3 DUP2 MSTORE PUSH1 0x20 ADD SWAP3 POP POP POP PUSH1 0x40 MLOAD PUSH1 0x20 DUP2 DUP4 SUB SUB DUP2 MSTORE SWAP1 PUSH1 0x40 MSTORE PUSH1 0x40 MLOAD DUP1 DUP3 DUP1 MLOAD SWAP1 PUSH1 0x20 ADD SWAP1 DUP1 DUP4 DUP4 JUMPDEST PUSH1 0x20 DUP4 LT PUSH2 0x9C JUMPI DUP1 MLOAD DUP3 MSTORE PUSH1 0x20 DUP3 ADD SWAP2 POP PUSH1 0x20 DUP2 ADD SWAP1 POP PUSH1 0x20 DUP4 SUB SWAP3 POP PUSH2 0x79 JUMP JUMPDEST PUSH1 0x1 DUP4 PUSH1 0x20 SUB PUSH2 0x100 EXP SUB DUP1 NOT DUP3 MLOAD AND DUP2 DUP5 MLOAD AND DUP1 DUP3 OR DUP6 MSTORE POP POP POP POP POP POP SWAP1 POP ADD SWAP2 POP POP PUSH1 0x20 PUSH1 0x40 MLOAD DUP1 DUP4 SUB DUP2 DUP6 GAS STATICCALL ISZERO DUP1 ISZERO PUSH2 0xDE JUMPI RETURNDATASIZE PUSH1 0x0 DUP1 RETURNDATACOPY RETURNDATASIZE PUSH1 0x0 REVERT JUMPDEST POP POP POP PUSH1 0x40 MLOAD RETURNDATASIZE PUSH1 0x20 DUP2 LT ISZERO PUSH2 0xF3 JUMPI PUSH1 0x0 DUP1 REVERT JUMPDEST DUP2 ADD SWAP1 DUP1 DUP1 MLOAD SWAP1 PUSH1 0x20 ADD SWAP1 SWAP3 SWAP2 SWAP1 POP POP POP PUSH1 0x21 PUSH1 0x1 DUP4 ADD PUSH1 0x20 DUP2 LT PUSH2 0x114 JUMPI INVALID JUMPDEST ADD DUP2 SWAP1 SSTORE POP DUP1 DUP1 PUSH1 0x1 ADD SWAP2 POP POP PUSH2 0x17 JUMP JUMPDEST POP PUSH2 0x17BD DUP1 PUSH3 0x137 PUSH1 0x0 CODECOPY PUSH1 0x0 RETURN INVALID PUSH1 0x80 PUSH1 0x40 MSTORE PUSH1 0x4 CALLDATASIZE LT PUSH2 0x3F JUMPI PUSH1 0x0 CALLDATALOAD PUSH1 0xE0 SHR DUP1 PUSH4 0x1FFC9A7 EQ PUSH2 0x44 JUMPI DUP1 PUSH4 0x22895118 EQ PUSH2 0xB6 JUMPI DUP1 PUSH4 0x621FD130 EQ PUSH2 0x1E3 JUMPI DUP1 PUSH4 0xC5F2892F EQ PUSH2 0x273 JUMPI JUMPDEST PUSH1 0x0 DUP1 REVERT JUMPDEST CALLVALUE DUP1 ISZERO PUSH2 0x50 JUMPI PUSH1 0x0 DUP1 REVERT JUMPDEST POP PUSH2 0x9C PUSH1 0x4 DUP1 CALLDATASIZE SUB PUSH1 0x20 DUP2 LT ISZERO PUSH2 0x67 JUMPI PUSH1 0x0 DUP1 REVERT JUMPDEST DUP2 ADD SWAP1 DUP1 DUP1 CALLDATALOAD PUSH28 0xFFFFFFFFFFFFFFFFFFFFFFFFFFFFFFFFFFFFFFFFFFFFFFFFFFFFFFFF NOT AND SWAP1 PUSH1 0x20 ADD SWAP1 SWAP3 SWAP2 SWAP1 POP POP POP PUSH2 0x29E JUMP JUMPDEST PUSH1 0x40 MLOAD DUP1 DUP3 ISZERO ISZERO ISZERO ISZERO DUP2 MSTORE PUSH1 0x20 ADD SWAP2 POP POP PUSH1 0x40 MLOAD DUP1 SWAP2 SUB SWAP1 RETURN JUMPDEST PUSH2 0x1E1 PUSH1 0x4 DUP1 CALLDATASIZE SUB PUSH1 0x80 DUP2 LT ISZERO PUSH2 0xCC JUMPI PUSH1 0x0 DUP1 REVERT JUMPDEST DUP2 ADD SWAP1 DUP1 DUP1 CALLDATALOAD SWAP1 PUSH1 0x20 ADD SWAP1 PUSH5 0x100000000 DUP2 GT ISZERO PUSH2 0xE9 JUMPI PUSH1 0x0 DUP1 REVERT JUMPDEST DUP3 ADD DUP4 PUSH1 0x20 DUP3 ADD GT ISZERO PUSH2 0xFB JUMPI PUSH1 0x0 DUP1 REVERT JUMPDEST DUP1 CALLDATALOAD SWAP1 PUSH1 0x20 ADD SWAP2 DUP5 PUSH1 0x1 DUP4 MUL DUP5 ADD GT PUSH5 0x100000000 DUP4 GT OR ISZERO PUSH2 0x11D JUMPI PUSH1 0x0 DUP1 REVERT JUMPDEST SWAP1 SWAP2 SWAP3 SWAP4 SWAP2 SWAP3 SWAP4 SWAP1 DUP1 CALLDATALOAD SWAP1 PUSH1 0x20 ADD SWAP1 PUSH5 0x100000000 DUP2 GT ISZERO PUSH2 0x13E JUMPI PUSH1 0x0 DUP1 REVERT JUMPDEST DUP3 ADD DUP4 PUSH1 0x20 DUP3 ADD GT ISZERO PUSH2 0x150 JUMPI PUSH1 0x0 DUP1 REVERT JUMPDEST DUP1 CALLDATALOAD SWAP1 PUSH1 0x20 ADD SWAP2 DUP5 PUSH1 0x1 DUP4 MUL DUP5 ADD GT PUSH5 0x100000000 DUP4 GT OR ISZERO PUSH2 0x172 JUMPI PUSH1 0x0 DUP1 REVERT JUMPDEST SWAP1 SWAP2 SWAP3 SWAP4 SWAP2 SWAP3 SWAP4 SWAP1 DUP1 CALLDATALOAD SWAP1 PUSH1 0x20 ADD SWAP1 PUSH5 0x100000000 DUP2 GT ISZERO PUSH2 0x193 JUMPI PUSH1 0x0 DUP1 REVERT JUMPDEST DUP3 ADD DUP4 PUSH1 0x20 DUP3 ADD GT ISZERO PUSH2 0x1A5 JUMPI PUSH1 0x0 DUP1 REVERT JUMPDEST DUP1 CALLDATALOAD SWAP1 PUSH1 0x20 ADD SWAP2 DUP5 PUSH1 0x1 DUP4 MUL DUP5 ADD GT PUSH5 0x100000000 DUP4 GT OR ISZERO PUSH2 0x1C7 JUMPI PUSH1 0x0 DUP1 REVERT JUMPDEST SWAP1 SWAP2 SWAP3 SWAP4 SWAP2 SWAP3 SWAP4 SWAP1 DUP1 CALLDATALOAD SWAP1 PUSH1 0x20 ADD SWAP1 SWAP3 SWAP2 SWAP1 POP POP POP PUSH2 0x370 JUMP JUMPDEST STOP JUMPDEST CALLVALUE DUP1 ISZERO PUSH2 0x1EF JUMPI PUSH1 0x0 DUP1 REVERT JUMPDEST POP PUSH2 0x1F8 PUSH2 0xFD0 JUMP JUMPDEST PUSH1 0x40 MLOAD DUP1 DUP1 PUSH1 0x20 ADD DUP3 DUP2 SUB DUP3 MSTORE DUP4 DUP2 DUP2 MLOAD DUP2 MSTORE PUSH1 0x20 ADD SWAP2 POP DUP1 MLOAD SWAP1 PUSH1 0x20 ADD SWAP1 DUP1 DUP4 DUP4 PUSH1 0x0 JUMPDEST DUP4 DUP2 LT ISZERO PUSH2 0x238 JUMPI DUP1 DUP3 ADD MLOAD DUP2 DUP5 ADD MSTORE PUSH1 0x20 DUP2 ADD SWAP1 POP PUSH2 0x21D JUMP JUMPDEST POP POP POP POP SWAP1 POP SWAP1 DUP2 ADD SWAP1 PUSH1 0x1F AND DUP1 ISZERO PUSH2 0x265 JUMPI DUP1 DUP3 SUB DUP1 MLOAD PUSH1 0x1 DUP4 PUSH1 0x20 SUB PUSH2 0x100 EXP SUB NOT AND DUP2 MSTORE PUSH1 0x20 ADD SWAP2 POP JUMPDEST POP SWAP3 POP POP POP PUSH1 0x40 MLOAD DUP1 SWAP2 SUB SWAP1 RETURN JUMPDEST CALLVALUE DUP1 ISZERO PUSH2 0x27F JUMPI PUSH1 0x0 DUP1 REVERT JUMPDEST POP PUSH2 0x288 PUSH2 0xFE2 JUMP JUMPDEST PUSH1 0x40 MLOAD DUP1 DUP3 DUP2 MSTORE PUSH1 0x20 ADD SWAP2 POP POP PUSH1 0x40 MLOAD DUP1 SWAP2 SUB SWAP1 RETURN JUMPDEST PUSH1 0x0 PUSH32 0x1FFC9A700000000000000000000000000000000000000000000000000000000 PUSH28 0xFFFFFFFFFFFFFFFFFFFFFFFFFFFFFFFFFFFFFFFFFFFFFFFFFFFFFFFF NOT AND DUP3 PUSH28 0xFFFFFFFFFFFFFFFFFFFFFFFFFFFFFFFFFFFFFFFFFFFFFFFFFFFFFFFF NOT AND EQ DUP1 PUSH2 0x369 JUMPI POP PUSH32 0x8564090700000000000000000000000000000000000000000000000000000000 PUSH28 0xFFFFFFFFFFFFFFFFFFFFFFFFFFFFFFFFFFFFFFFFFFFFFFFFFFFFFFFF NOT AND DUP3 PUSH28 0xFFFFFFFFFFFFFFFFFFFFFFFFFFFFFFFFFFFFFFFFFFFFFFFFFFFFFFFF NOT AND EQ JUMPDEST SWAP1 POP SWAP2 SWAP1 POP JUMP JUMPDEST PUSH1 0x30 DUP8 DUP8 SWAP1 POP EQ PUSH2 0x3CC JUMPI PUSH1 0x40 MLOAD PUSH32 0x8C379A000000000000000000000000000000000000000000000000000000000 DUP2 MSTORE PUSH1 0x4 ADD DUP1 DUP1 PUSH1 0x20 ADD DUP3 DUP2 SUB DUP3 MSTORE PUSH1 0x26 DUP2 MSTORE PUSH1 0x20 ADD DUP1 PUSH2 0x16EC PUSH1 0x26 SWAP2 CODECOPY PUSH1 0x40 ADD SWAP2 POP POP PUSH1 0x40 MLOAD DUP1 SWAP2 SUB SWAP1 REVERT JUMPDEST PUSH1 0x20 DUP6 DUP6 SWAP1 POP EQ PUSH2 0x428 JUMPI PUSH1 0x40 MLOAD PUSH32 0x8C379A000000000000000000000000000000000000000000000000000000000 DUP2 MSTORE PUSH1 0x4 ADD DUP1 DUP1 PUSH1 0x20 ADD DUP3 DUP2 SUB DUP3 MSTORE PUSH1 0x36 DUP2 MSTORE PUSH1 0x20 ADD DUP1 PUSH2 0x1683 PUSH1 0x36 SWAP2 CODECOPY PUSH1 0x40 ADD SWAP2 POP POP PUSH1 0x40 MLOAD DUP1 SWAP2 SUB SWAP1 REVERT JUMPDEST PUSH1 0x60 DUP4 DUP4 SWAP1 POP EQ PUSH2 0x484 JUMPI PUSH1 0x40 MLOAD PUSH32 0x8C379A000000000000000000000000000000000000000000000000000000000 DUP2 MSTORE PUSH1 0x4 ADD DUP1 DUP1 PUSH1 0x20 ADD DUP3 DUP2 SUB DUP3 MSTORE PUSH1 0x29 DUP2 MSTORE PUSH1 0x20 ADD DUP1 PUSH2 0x175F PUSH1 0x29 SWAP2 CODECOPY PUSH1 0x40 ADD SWAP2 POP POP PUSH1 0x40 MLOAD DUP1 SWAP2 SUB SWAP1 REVERT JUMPDEST PUSH8 0xDE0B6B3A7640000 CALLVALUE LT ISZERO PUSH2 0x4E5 JUMPI PUSH1 0x40 MLOAD PUSH32 0x8C379A000000000000000000000000000000000000000000000000000000000 DUP2 MSTORE PUSH1 0x4 ADD DUP1 DUP1 PUSH1 0x20 ADD DUP3 DUP2 SUB DUP3 MSTORE PUSH1 0x26 DUP2 MSTORE PUSH1 0x20 ADD DUP1 PUSH2 0x1739 PUSH1 0x26 SWAP2 CODECOPY PUSH1 0x40 ADD SWAP2 POP POP PUSH1 0x40 MLOAD DUP1 SWAP2 SUB SWAP1 REVERT JUMPDEST PUSH1 0x0 PUSH4 0x3B9ACA00 CALLVALUE DUP2 PUSH2 0x4F4 JUMPI INVALID JUMPDEST MOD EQ PUSH2 0x54B JUMPI PUSH1 0x40 MLOAD PUSH32 0x8C379A000000000000000000000000000000000000000000000000000000000 DUP2 MSTORE PUSH1 0x4 ADD DUP1 DUP1 PUSH1 0x20 ADD DUP3 DUP2 SUB DUP3 MSTORE PUSH1 0x33 DUP2 MSTORE PUSH1 0x20 ADD DUP1 PUSH2 0x16B9 PUSH1 0x33 SWAP2 CODECOPY PUSH1 0x40 ADD SWAP2 POP POP PUSH1 0x40 MLOAD DUP1 SWAP2 SUB SWAP1 REVERT JUMPDEST PUSH1 0x0 PUSH4 0x3B9ACA00 CALLVALUE DUP2 PUSH2 0x55A JUMPI INVALID JUMPDEST DIV SWAP1 POP PUSH8 0xFFFFFFFFFFFFFFFF DUP1 AND DUP2 GT ISZERO PUSH2 0x5C0 JUMPI PUSH1 0x40 MLOAD PUSH32 0x8C379A000000000000000000000000000000000000000000000000000000000 DUP2 MSTORE PUSH1 0x4 ADD DUP1 DUP1 PUSH1 0x20 ADD DUP3 DUP2 SUB DUP3 MSTORE PUSH1 0x27 DUP2 MSTORE PUSH1 0x20 ADD DUP1 PUSH2 0x1712 PUSH1 0x27 SWAP2 CODECOPY PUSH1 0x40 ADD SWAP2 POP POP PUSH1 0x40 MLOAD DUP1 SWAP2 SUB SWAP1 REVERT JUMPDEST PUSH1 0x60 PUSH2 0x5CB DUP3 PUSH2 0x1314 JUMP JUMPDEST SWAP1 POP PUSH32 0x649BBC62D0E31342AFEA4E5CD82D4049E7E1EE912FC0889AA790803BE39038C5 DUP10 DUP10 DUP10 DUP10 DUP6 DUP11 DUP11 PUSH2 0x600 PUSH1 0x20 SLOAD PUSH2 0x1314 JUMP JUMPDEST PUSH1 0x40 MLOAD DUP1 DUP1 PUSH1 0x20 ADD DUP1 PUSH1 0x20 ADD DUP1 PUSH1 0x20 ADD DUP1 PUSH1 0x20 ADD DUP1 PUSH1 0x20 ADD DUP7 DUP2 SUB DUP7 MSTORE DUP15 DUP15 DUP3 DUP2 DUP2 MSTORE PUSH1 0x20 ADD SWAP3 POP DUP1 DUP3 DUP5 CALLDATACOPY PUSH1 0x0 DUP2 DUP5 ADD MSTORE PUSH1 0x1F NOT PUSH1 0x1F DUP3 ADD AND SWAP1 POP DUP1 DUP4 ADD SWAP3 POP POP POP DUP7 DUP2 SUB DUP6 MSTORE DUP13 DUP13 DUP3 DUP2 DUP2 MSTORE PUSH1 0x20 ADD SWAP3 POP DUP1 DUP3 DUP5 CALLDATACOPY PUSH1 0x0 DUP2 DUP5 ADD MSTORE PUSH1 0x1F NOT PUSH1 0x1F DUP3 ADD AND SWAP1 POP DUP1 DUP4 ADD SWAP3 POP POP POP DUP7 DUP2 SUB DUP5 MSTORE DUP11 DUP2 DUP2 MLOAD DUP2 MSTORE PUSH1 0x20 ADD SWAP2 POP DUP1 MLOAD SWAP1 PUSH1 0x20 ADD SWAP1 DUP1 DUP4 DUP4 PUSH1 0x0 JUMPDEST DUP4 DUP2 LT ISZERO PUSH2 0x6A6 JUMPI DUP1 DUP3 ADD MLOAD DUP2 DUP5 ADD MSTORE PUSH1 0x20 DUP2 ADD SWAP1 POP PUSH2 0x68B JUMP JUMPDEST POP POP POP POP SWAP1 POP SWAP1 DUP2 ADD SWAP1 PUSH1 0x1F AND DUP1 ISZERO PUSH2 0x6D3 JUMPI DUP1 DUP3 SUB DUP1 MLOAD PUSH1 0x1 DUP4 PUSH1 0x20 SUB PUSH2 0x100 EXP SUB NOT AND DUP2 MSTORE PUSH1 0x20 ADD SWAP2 POP JUMPDEST POP DUP7 DUP2 SUB DUP4 MSTORE DUP10 DUP10 DUP3 DUP2 DUP2 MSTORE PUSH1 0x20 ADD SWAP3 POP DUP1 DUP3 DUP5 CALLDATACOPY PUSH1 0x0 DUP2 DUP5 ADD MSTORE PUSH1 0x1F NOT PUSH1 0x1F DUP3 ADD AND SWAP1 POP DUP1 DUP4 ADD SWAP3 POP POP POP DUP7 DUP2 SUB DUP3 MSTORE DUP8 DUP2 DUP2 MLOAD DUP2 MSTORE PUSH1 0x20 ADD SWAP2 POP DUP1 MLOAD SWAP1 PUSH1 0x20 ADD SWAP1 DUP1 DUP4 DUP4 PUSH1 0x0 JUMPDEST DUP4 DUP2 LT ISZERO PUSH2 0x737 JUMPI DUP1 DUP3 ADD MLOAD DUP2 DUP5 ADD MSTORE PUSH1 0x20 DUP2 ADD SWAP1 POP PUSH2 0x71C JUMP JUMPDEST POP POP POP POP SWAP1 POP SWAP1 DUP2 ADD SWAP1 PUSH1 0x1F AND DUP1 ISZERO PUSH2 0x764 JUMPI DUP1 DUP3 SUB DUP1 MLOAD PUSH1 0x1 DUP4 PUSH1 0x20 SUB PUSH2 0x100 EXP SUB NOT AND DUP2 MSTORE PUSH1 0x20 ADD SWAP2 POP JUMPDEST POP SWAP14 POP POP POP POP POP POP POP POP POP POP POP POP POP POP PUSH1 0x40 MLOAD DUP1 SWAP2 SUB SWAP1 LOG1 PUSH1 0x0 PUSH1 0x2 DUP11 DUP11 PUSH1 0x0 PUSH1 0x80 SHL PUSH1 0x40 MLOAD PUSH1 0x20 ADD DUP1 DUP5 DUP5 DUP1 DUP3 DUP5 CALLDATACOPY DUP1 DUP4 ADD SWAP3 POP POP POP DUP3 PUSH16 0xFFFFFFFFFFFFFFFFFFFFFFFFFFFFFFFF NOT AND PUSH16 0xFFFFFFFFFFFFFFFFFFFFFFFFFFFFFFFF NOT AND DUP2 MSTORE PUSH1 0x10 ADD SWAP4 POP POP POP POP PUSH1 0x40 MLOAD PUSH1 0x20 DUP2 DUP4 SUB SUB DUP2 MSTORE SWAP1 PUSH1 0x40 MSTORE PUSH1 0x40 MLOAD DUP1 DUP3 DUP1 MLOAD SWAP1 PUSH1 0x20 ADD SWAP1 DUP1 DUP4 DUP4 JUMPDEST PUSH1 0x20 DUP4 LT PUSH2 0x80E JUMPI DUP1 MLOAD DUP3 MSTORE PUSH1 0x20 DUP3 ADD SWAP2 POP PUSH1 0x20 DUP2 ADD SWAP1 POP PUSH1 0x20 DUP4 SUB SWAP3 POP PUSH2 0x7EB JUMP JUMPDEST PUSH1 0x1 DUP4 PUSH1 0x20 SUB PUSH2 0x100 EXP SUB DUP1 NOT DUP3 MLOAD AND DUP2 DUP5 MLOAD AND DUP1 DUP3 OR DUP6 MSTORE POP POP POP POP POP POP SWAP1 POP ADD SWAP2 POP POP PUSH1 0x20 PUSH1 0x40 MLOAD DUP1 DUP4 SUB DUP2 DUP6 GAS STATICCALL ISZERO DUP1 ISZERO PUSH2 0x850 JUMPI RETURNDATASIZE PUSH1 0x0 DUP1 RETURNDATACOPY RETURNDATASIZE PUSH1 0x0 REVERT JUMPDEST POP POP POP PUSH1 0x40 MLOAD RETURNDATASIZE PUSH1 0x20 DUP2 LT ISZERO PUSH2 0x865 JUMPI PUSH1 0x0 DUP1 REVERT JUMPDEST DUP2 ADD SWAP1 DUP1 DUP1 MLOAD SWAP1 PUSH1 0x20 ADD SWAP1 SWAP3 SWAP2 SWAP1 POP POP POP SWAP1 POP PUSH1 0x0 PUSH1 0x2 DUP1 DUP9 DUP9 PUSH1 0x0 SWAP1 PUSH1 0x40 SWAP3 PUSH2 0x891 SWAP4 SWAP3 SWAP2 SWAP1 PUSH2 0x15DA JUMP JUMPDEST PUSH1 0x40 MLOAD PUSH1 0x20 ADD DUP1 DUP4 DUP4 DUP1 DUP3 DUP5 CALLDATACOPY DUP1 DUP4 ADD SWAP3 POP POP POP SWAP3 POP POP POP PUSH1 0x40 MLOAD PUSH1 0x20 DUP2 DUP4 SUB SUB DUP2 MSTORE SWAP1 PUSH1 0x40 MSTORE PUSH1 0x40 MLOAD DUP1 DUP3 DUP1 MLOAD SWAP1 PUSH1 0x20 ADD SWAP1 DUP1 DUP4 DUP4 JUMPDEST PUSH1 0x20 DUP4 LT PUSH2 0x8EB JUMPI DUP1 MLOAD DUP3 MSTORE PUSH1 0x20 DUP3 ADD SWAP2 POP PUSH1 0x20 DUP2 ADD SWAP1 POP PUSH1 0x20 DUP4 SUB SWAP3 POP PUSH2 0x8C8 JUMP JUMPDEST PUSH1 0x1 DUP4 PUSH1 0x20 SUB PUSH2 0x100 EXP SUB DUP1 NOT DUP3 MLOAD AND DUP2 DUP5 MLOAD AND DUP1 DUP3 OR DUP6 MSTORE POP POP POP POP POP POP SWAP1 POP ADD SWAP2 POP POP PUSH1 0x20 PUSH1 0x40 MLOAD DUP1 DUP4 SUB DUP2 DUP6 GAS STATICCALL ISZERO DUP1 ISZERO PUSH2 0x92D JUMPI RETURNDATASIZE PUSH1 0x0 DUP1 RETURNDATACOPY RETURNDATASIZE PUSH1 0x0 REVERT JUMPDEST POP POP POP PUSH1 0x40 MLOAD RETURNDATASIZE PUSH1 0x20 DUP2 LT ISZERO PUSH2 0x942 JUMPI PUSH1 0x0 DUP1 REVERT JUMPDEST DUP2 ADD SWAP1 DUP1 DUP1 MLOAD SWAP1 PUSH1 0x20 ADD SWAP1 SWAP3 SWAP2 SWAP1 POP POP POP PUSH1 0x2 DUP10 DUP10 PUSH1 0x40 SWAP1 DUP1 SWAP3 PUSH2 0x968 SWAP4 SWAP3 SWAP2 SWAP1 PUSH2 0x15DA JUMP JUMPDEST PUSH1 0x0 DUP1 SHL PUSH1 0x40 MLOAD PUSH1 0x20 ADD DUP1 DUP5 DUP5 DUP1 DUP3 DUP5 CALLDATACOPY DUP1 DUP4 ADD SWAP3 POP POP POP DUP3 DUP2 MSTORE PUSH1 0x20 ADD SWAP4 POP POP POP POP PUSH1 0x40 MLOAD PUSH1 0x20 DUP2 DUP4 SUB SUB DUP2 MSTORE SWAP1 PUSH1 0x40 MSTORE PUSH1 0x40 MLOAD DUP1 DUP3 DUP1 MLOAD SWAP1 PUSH1 0x20 ADD SWAP1 DUP1 DUP4 DUP4 JUMPDEST PUSH1 0x20 DUP4 LT PUSH2 0x9CD JUMPI DUP1 MLOAD DUP3 MSTORE PUSH1 0x20 DUP3 ADD SWAP2 POP PUSH1 0x20 DUP2 ADD SWAP1 POP PUSH1 0x20 DUP4 SUB SWAP3 POP PUSH2 0x9AA JUMP JUMPDEST PUSH1 0x1 DUP4 PUSH1 0x20 SUB PUSH2 0x100 EXP SUB DUP1 NOT DUP3 MLOAD AND DUP2 DUP5 MLOAD AND DUP1 DUP3 OR DUP6 MSTORE POP POP POP POP POP POP SWAP1 POP ADD SWAP2 POP POP PUSH1 0x20 PUSH1 0x40 MLOAD DUP1 DUP4 SUB DUP2 DUP6 GAS STATICCALL ISZERO DUP1 ISZERO PUSH2 0xA0F JUMPI RETURNDATASIZE PUSH1 0x0 DUP1 RETURNDATACOPY RETURNDATASIZE PUSH1 0x0 REVERT JUMPDEST POP POP POP PUSH1 0x40 MLOAD RETURNDATASIZE PUSH1 0x20 DUP2 LT ISZERO PUSH2 0xA24 JUMPI PUSH1 0x0 DUP1 REVERT JUMPDEST DUP2 ADD SWAP1 DUP1 DUP1 MLOAD SWAP1 PUSH1 0x20 ADD SWAP1 SWAP3 SWAP2 SWAP1 POP POP POP PUSH1 0x40 MLOAD PUSH1 0x20 ADD DUP1 DUP4 DUP2 MSTORE PUSH1 0x20 ADD DUP3 DUP2 MSTORE PUSH1 0x20 ADD SWAP3 POP POP POP PUSH1 0x40 MLOAD PUSH1 0x20 DUP2 DUP4 SUB SUB DUP2 MSTORE SWAP1 PUSH1 0x40 MSTORE PUSH1 0x40 MLOAD DUP1 DUP3 DUP1 MLOAD SWAP1 PUSH1 0x20 ADD SWAP1 DUP1 DUP4 DUP4 JUMPDEST PUSH1 0x20 DUP4 LT PUSH2 0xA8E JUMPI DUP1 MLOAD DUP3 MSTORE PUSH1 0x20 DUP3 ADD SWAP2 POP PUSH1 0x20 DUP2 ADD SWAP1 POP PUSH1 0x20 DUP4 SUB SWAP3 POP PUSH2 0xA6B JUMP JUMPDEST PUSH1 0x1 DUP4 PUSH1 0x20 SUB PUSH2 0x100 EXP SUB DUP1 NOT DUP3 MLOAD AND DUP2 DUP5 MLOAD AND DUP1 DUP3 OR DUP6 MSTORE POP POP POP POP POP POP SWAP1 POP ADD SWAP2 POP POP PUSH1 0x20 PUSH1 0x40 MLOAD DUP1 DUP4 SUB DUP2 DUP6 GAS STATICCALL ISZERO DUP1 ISZERO PUSH2 0xAD0 JUMPI RETURNDATASIZE PUSH1 0x0 DUP1 RETURNDATACOPY RETURNDATASIZE PUSH1 0x0 REVERT JUMPDEST POP POP POP PUSH1 0x40 MLOAD RETURNDATASIZE PUSH1 0x20 DUP2 LT ISZERO PUSH2 0xAE5 JUMPI PUSH1 0x0 DUP1 REVERT JUMPDEST DUP2 ADD SWAP1 DUP1 DUP1 MLOAD SWAP1 PUSH1 0x20 ADD SWAP1 SWAP3 SWAP2 SWAP1 POP POP POP SWAP1 POP PUSH1 0x0 PUSH1 0x2 DUP1 DUP5 DUP13 DUP13 PUSH1 0x40 MLOAD PUSH1 0x20 ADD DUP1 DUP5 DUP2 MSTORE PUSH1 0x20 ADD DUP4 DUP4 DUP1 DUP3 DUP5 CALLDATACOPY DUP1 DUP4 ADD SWAP3 POP POP POP SWAP4 POP POP POP POP PUSH1 0x40 MLOAD PUSH1 0x20 DUP2 DUP4 SUB SUB DUP2 MSTORE SWAP1 PUSH1 0x40 MSTORE PUSH1 0x40 MLOAD DUP1 DUP3 DUP1 MLOAD SWAP1 PUSH1 0x20 ADD SWAP1 DUP1 DUP4 DUP4 JUMPDEST PUSH1 0x20 DUP4 LT PUSH2 0xB61 JUMPI DUP1 MLOAD DUP3 MSTORE PUSH1 0x20 DUP3 ADD SWAP2 POP PUSH1 0x20 DUP2 ADD SWAP1 POP PUSH1 0x20 DUP4 SUB SWAP3 POP PUSH2 0xB3E JUMP JUMPDEST PUSH1 0x1 DUP4 PUSH1 0x20 SUB PUSH2 0x100 EXP SUB DUP1 NOT DUP3 MLOAD AND DUP2 DUP5 MLOAD AND DUP1 DUP3 OR DUP6 MSTORE POP POP POP POP POP POP SWAP1 POP ADD SWAP2 POP POP PUSH1 0x20 PUSH1 0x40 MLOAD DUP1 DUP4 SUB DUP2 DUP6 GAS STATICCALL ISZERO DUP1 ISZERO PUSH2 0xBA3 JUMPI RETURNDATASIZE PUSH1 0x0 DUP1 RETURNDATACOPY RETURNDATASIZE PUSH1 0x0 REVERT JUMPDEST POP POP POP PUSH1 0x40 MLOAD RETURNDATASIZE PUSH1 0x20 DUP2 LT ISZERO PUSH2 0xBB8 JUMPI PUSH1 0x0 DUP1 REVERT JUMPDEST DUP2 ADD SWAP1 DUP1 DUP1 MLOAD SWAP1 PUSH1 0x20 ADD SWAP1 SWAP3 SWAP2 SWAP1 POP POP POP PUSH1 0x2 DUP7 PUSH1 0x0 PUSH1 0x40 SHL DUP7 PUSH1 0x40 MLOAD PUSH1 0x20 ADD DUP1 DUP5 DUP1 MLOAD SWAP1 PUSH1 0x20 ADD SWAP1 DUP1 DUP4 DUP4 JUMPDEST PUSH1 0x20 DUP4 LT PUSH2 0xC08 JUMPI DUP1 MLOAD DUP3 MSTORE PUSH1 0x20 DUP3 ADD SWAP2 POP PUSH1 0x20 DUP2 ADD SWAP1 POP PUSH1 0x20 DUP4 SUB SWAP3 POP PUSH2 0xBE5 JUMP JUMPDEST PUSH1 0x1 DUP4 PUSH1 0x20 SUB PUSH2 0x100 EXP SUB DUP1 NOT DUP3 MLOAD AND DUP2 DUP5 MLOAD AND DUP1 DUP3 OR DUP6 MSTORE POP POP POP POP POP POP SWAP1 POP ADD DUP4 PUSH8 0xFFFFFFFFFFFFFFFF NOT AND PUSH8 0xFFFFFFFFFFFFFFFF NOT AND DUP2 MSTORE PUSH1 0x18 ADD DUP3 DUP2 MSTORE PUSH1 0x20 ADD SWAP4 POP POP POP POP PUSH1 0x40 MLOAD PUSH1 0x20 DUP2 DUP4 SUB SUB DUP2 MSTORE SWAP1 PUSH1 0x40 MSTORE PUSH1 0x40 MLOAD DUP1 DUP3 DUP1 MLOAD SWAP1 PUSH1 0x20 ADD SWAP1 DUP1 DUP4 DUP4 JUMPDEST PUSH1 0x20 DUP4 LT PUSH2 0xC93 JUMPI DUP1 MLOAD DUP3 MSTORE PUSH1 0x20 DUP3 ADD SWAP2 POP PUSH1 0x20 DUP2 ADD SWAP1 POP PUSH1 0x20 DUP4 SUB SWAP3 POP PUSH2 0xC70 JUMP JUMPDEST PUSH1 0x1 DUP4 PUSH1 0x20 SUB PUSH2 0x100 EXP SUB DUP1 NOT DUP3 MLOAD AND DUP2 DUP5 MLOAD AND DUP1 DUP3 OR DUP6 MSTORE POP POP POP POP POP POP SWAP1 POP ADD SWAP2 POP POP PUSH1 0x20 PUSH1 0x40 MLOAD DUP1 DUP4 SUB DUP2 DUP6 GAS STATICCALL ISZERO DUP1 ISZERO PUSH2 0xCD5 JUMPI RETURNDATASIZE PUSH1 0x0 DUP1 RETURNDATACOPY RETURNDATASIZE PUSH1 0x0 REVERT JUMPDEST POP POP POP PUSH1 0x40 MLOAD RETURNDATASIZE PUSH1 0x20 DUP2 LT ISZERO PUSH2 0xCEA JUMPI PUSH1 0x0 DUP1 REVERT JUMPDEST DUP2 ADD SWAP1 DUP1 DUP1 MLOAD SWAP1 PUSH1 0x20 ADD SWAP1 SWAP3 SWAP2 SWAP1 POP POP POP PUSH1 0x40 MLOAD PUSH1 0x20 ADD DUP1 DUP4 DUP2 MSTORE PUSH1 0x20 ADD DUP3 DUP2 MSTORE PUSH1 0x20 ADD SWAP3 POP POP POP PUSH1 0x40 MLOAD PUSH1 0x20 DUP2 DUP4 SUB SUB DUP2 MSTORE SWAP1 PUSH1 0x40 MSTORE PUSH1 0x40 MLOAD DUP1 DUP3 DUP1 MLOAD SWAP1 PUSH1 0x20 ADD SWAP1 DUP1 DUP4 DUP4 JUMPDEST PUSH1 0x20 DUP4 LT PUSH2 0xD54 JUMPI DUP1 MLOAD DUP3 MSTORE PUSH1 0x20 DUP3 ADD SWAP2 POP PUSH1 0x20 DUP2 ADD SWAP1 POP PUSH1 0x20 DUP4 SUB SWAP3 POP PUSH2 0xD31 JUMP JUMPDEST PUSH1 0x1 DUP4 PUSH1 0x20 SUB PUSH2 0x100 EXP SUB DUP1 NOT DUP3 MLOAD AND DUP2 DUP5 MLOAD AND DUP1 DUP3 OR DUP6 MSTORE POP POP POP POP POP POP SWAP1 POP ADD SWAP2 POP POP PUSH1 0x20 PUSH1 0x40 MLOAD DUP1 DUP4 SUB DUP2 DUP6 GAS STATICCALL ISZERO DUP1 ISZERO PUSH2 0xD96 JUMPI RETURNDATASIZE PUSH1 0x0 DUP1 RETURNDATACOPY RETURNDATASIZE PUSH1 0x0 REVERT JUMPDEST POP POP POP PUSH1 0x40 MLOAD RETURNDATASIZE PUSH1 0x20 DUP2 LT ISZERO PUSH2 0xDAB JUMPI PUSH1 0x0 DUP1 REVERT JUMPDEST DUP2 ADD SWAP1 DUP1 DUP1 MLOAD SWAP1 PUSH1 0x20 ADD SWAP1 SWAP3 SWAP2 SWAP1 POP POP POP SWAP1 POP DUP6 DUP2 EQ PUSH2 0xE16 JUMPI PUSH1 0x40 MLOAD PUSH32 0x8C379A000000000000000000000000000000000000000000000000000000000 DUP2 MSTORE PUSH1 0x4 ADD DUP1 DUP1 PUSH1 0x20 ADD DUP3 DUP2 SUB DUP3 MSTORE PUSH1 0x54 DUP2 MSTORE PUSH1 0x20 ADD DUP1 PUSH2 0x162F PUSH1 0x54 SWAP2 CODECOPY PUSH1 0x60 ADD SWAP2 POP POP PUSH1 0x40 MLOAD DUP1 SWAP2 SUB SWAP1 REVERT JUMPDEST PUSH1 0x1 PUSH1 0x20 PUSH1 0x2 EXP SUB PUSH1 0x20 SLOAD LT PUSH2 0xE77 JUMPI PUSH1 0x40 MLOAD PUSH32 0x8C379A000000000000000000000000000000000000000000000000000000000 DUP2 MSTORE PUSH1 0x4 ADD DUP1 DUP1 PUSH1 0x20 ADD DUP3 DUP2 SUB DUP3 MSTORE PUSH1 0x21 DUP2 MSTORE PUSH1 0x20 ADD DUP1 PUSH2 0x160E PUSH1 0x21 SWAP2 CODECOPY PUSH1 0x40 ADD SWAP2 POP POP PUSH1 0x40 MLOAD DUP1 SWAP2 SUB SWAP1 REVERT JUMPDEST PUSH1 0x1 PUSH1 0x20 PUSH1 0x0 DUP3 DUP3 SLOAD ADD SWAP3 POP POP DUP2 SWAP1 SSTORE POP PUSH1 0x0 PUSH1 0x20 SLOAD SWAP1 POP PUSH1 0x0 DUP1 SWAP1 POP JUMPDEST PUSH1 0x20 DUP2 LT ISZERO PUSH2 0xFB7 JUMPI PUSH1 0x1 DUP1 DUP4 AND EQ ISZERO PUSH2 0xEC8 JUMPI DUP3 PUSH1 0x0 DUP3 PUSH1 0x20 DUP2 LT PUSH2 0xEB7 JUMPI INVALID JUMPDEST ADD DUP2 SWAP1 SSTORE POP POP POP POP POP POP POP POP PUSH2 0xFC7 JUMP JUMPDEST PUSH1 0x2 PUSH1 0x0 DUP3 PUSH1 0x20 DUP2 LT PUSH2 0xED7 JUMPI INVALID JUMPDEST ADD SLOAD DUP5 PUSH1 0x40 MLOAD PUSH1 0x20 ADD DUP1 DUP4 DUP2 MSTORE PUSH1 0x20 ADD DUP3 DUP2 MSTORE PUSH1 0x20 ADD SWAP3 POP POP POP PUSH1 0x40 MLOAD PUSH1 0x20 DUP2 DUP4 SUB SUB DUP2 MSTORE SWAP1 PUSH1 0x40 MSTORE PUSH1 0x40 MLOAD DUP1 DUP3 DUP1 MLOAD SWAP1 PUSH1 0x20 ADD SWAP1 DUP1 DUP4 DUP4 JUMPDEST PUSH1 0x20 DUP4 LT PUSH2 0xF33 JUMPI DUP1 MLOAD DUP3 MSTORE PUSH1 0x20 DUP3 ADD SWAP2 POP PUSH1 0x20 DUP2 ADD SWAP1 POP PUSH1 0x20 DUP4 SUB SWAP3 POP PUSH2 0xF10 JUMP JUMPDEST PUSH1 0x1 DUP4 PUSH1 0x20 SUB PUSH2 0x100 EXP SUB DUP1 NOT DUP3 MLOAD AND DUP2 DUP5 MLOAD AND DUP1 DUP3 OR DUP6 MSTORE POP POP POP POP POP POP SWAP1 POP ADD SWAP2 POP POP PUSH1 0x20 PUSH1 0x40 MLOAD DUP1 DUP4 SUB DUP2 DUP6 GAS STATICCALL ISZERO DUP1 ISZERO PUSH2 0xF75 JUMPI RETURNDATASIZE PUSH1 0x0 DUP1 RETURNDATACOPY RETURNDATASIZE PUSH1 0x0 REVERT JUMPDEST POP POP POP PUSH1 0x40 MLOAD RETURNDATASIZE PUSH1 0x20 DUP2 LT ISZERO PUSH2 0xF8A JUMPI PUSH1 0x0 DUP1 REVERT JUMPDEST DUP2 ADD SWAP1 DUP1 DUP1 MLOAD SWAP1 PUSH1 0x20 ADD SWAP1 SWAP3 SWAP2 SWAP1 POP POP POP SWAP3 POP PUSH1 0x2 DUP3 DUP2 PUSH2 0xFA7 JUMPI INVALID JUMPDEST DIV SWAP2 POP DUP1 DUP1 PUSH1 0x1 ADD SWAP2 POP POP PUSH2 0xE95 JUMP JUMPDEST POP PUSH1 0x0 PUSH2 0xFC0 JUMPI INVALID JUMPDEST POP POP POP POP POP POP JUMPDEST POP POP POP POP POP POP POP JUMP JUMPDEST PUSH1 0x60 PUSH2 0xFDD PUSH1 0x20 SLOAD PUSH2 0x1314 JUMP JUMPDEST SWAP1 POP SWAP1 JUMP JUMPDEST PUSH1 0x0 DUP1 PUSH1 0x0 PUSH1 0x20 SLOAD SWAP1 POP PUSH1 0x0 DUP1 SWAP1 POP JUMPDEST PUSH1 0x20 DUP2 LT ISZERO PUSH2 0x11D0 JUMPI PUSH1 0x1 DUP1 DUP4 AND EQ ISZERO PUSH2 0x10E0 JUMPI PUSH1 0x2 PUSH1 0x0 DUP3 PUSH1 0x20 DUP2 LT PUSH2 0x1015 JUMPI INVALID JUMPDEST ADD SLOAD DUP5 PUSH1 0x40 MLOAD PUSH1 0x20 ADD DUP1 DUP4 DUP2 MSTORE PUSH1 0x20 ADD DUP3 DUP2 MSTORE PUSH1 0x20 ADD SWAP3 POP POP POP PUSH1 0x40 MLOAD PUSH1 0x20 DUP2 DUP4 SUB SUB DUP2 MSTORE SWAP1 PUSH1 0x40 MSTORE PUSH1 0x40 MLOAD DUP1 DUP3 DUP1 MLOAD SWAP1 PUSH1 0x20 ADD SWAP1 DUP1 DUP4 DUP4 JUMPDEST PUSH1 0x20 DUP4 LT PUSH2 0x1071 JUMPI DUP1 MLOAD DUP3 MSTORE PUSH1 0x20 DUP3 ADD SWAP2 POP PUSH1 0x20 DUP2 ADD SWAP1 POP PUSH1 0x20 DUP4 SUB SWAP3 POP PUSH2 0x104E JUMP JUMPDEST PUSH1 0x1 DUP4 PUSH1 0x20 SUB PUSH2 0x100 EXP SUB DUP1 NOT DUP3 MLOAD AND DUP2 DUP5 MLOAD AND DUP1 DUP3 OR DUP6 MSTORE POP POP POP POP POP POP SWAP1 POP ADD SWAP2 POP POP PUSH1 0x20 PUSH1 0x40 MLOAD DUP1 DUP4 SUB DUP2 DUP6 GAS STATICCALL ISZERO DUP1 ISZERO PUSH2 0x10B3 JUMPI RETURNDATASIZE PUSH1 0x0 DUP1 RETURNDATACOPY RETURNDATASIZE PUSH1 0x0 REVERT JUMPDEST POP POP POP PUSH1 0x40 MLOAD RETURNDATASIZE PUSH1 0x20 DUP2 LT ISZERO PUSH2 0x10C8 JUMPI PUSH1 0x0 DUP1 REVERT JUMPDEST DUP2 ADD SWAP1 DUP1 DUP1 MLOAD SWAP1 PUSH1 0x20 ADD SWAP1 SWAP3 SWAP2 SWAP1 POP POP POP SWAP3 POP PUSH2 0x11B6 JUMP JUMPDEST PUSH1 0x2 DUP4 PUSH1 0x21 DUP4 PUSH1 0x20 DUP2 LT PUSH2 0x10F0 JUMPI INVALID JUMPDEST ADD SLOAD PUSH1 0x40 MLOAD PUSH1 0x20 ADD DUP1 DUP4 DUP2 MSTORE PUSH1 0x20 ADD DUP3 DUP2 MSTORE PUSH1 0x20 ADD SWAP3 POP POP POP PUSH1 0x40 MLOAD PUSH1 0x20 DUP2 DUP4 SUB SUB DUP2 MSTORE SWAP1 PUSH1 0x40 MSTORE PUSH1 0x40 MLOAD DUP1 DUP3 DUP1 MLOAD SWAP1 PUSH1 0x20 ADD SWAP1 DUP1 DUP4 DUP4 JUMPDEST PUSH1 0x20 DUP4 LT PUSH2 0x114B JUMPI DUP1 MLOAD DUP3 MSTORE PUSH1 0x20 DUP3 ADD SWAP2 POP PUSH1 0x20 DUP2 ADD SWAP1 POP PUSH1 0x20 DUP4 SUB SWAP3 POP PUSH2 0x1128 JUMP JUMPDEST PUSH1 0x1 DUP4 PUSH1 0x20 SUB PUSH2 0x100 EXP SUB DUP1 NOT DUP3 MLOAD AND DUP2 DUP5 MLOAD AND DUP1 DUP3 OR DUP6 MSTORE POP POP POP POP POP POP SWAP1 POP ADD SWAP2 POP POP PUSH1 0x20 PUSH1 0x40 MLOAD DUP1 DUP4 SUB DUP2 DUP6 GAS STATICCALL ISZERO DUP1 ISZERO PUSH2 0x118D JUMPI RETURNDATASIZE PUSH1 0x0 DUP1 RETURNDATACOPY RETURNDATASIZE PUSH1 0x0 REVERT JUMPDEST POP POP POP PUSH1 0x40 MLOAD RETURNDATASIZE PUSH1 0x20 DUP2 LT ISZERO PUSH2 0x11A2 JUMPI PUSH1 0x0 DUP1 REVERT JUMPDEST DUP2 ADD SWAP1 DUP1 DUP1 MLOAD SWAP1 PUSH1 0x20 ADD SWAP1 SWAP3 SWAP2 SWAP1 POP POP POP SWAP3 POP JUMPDEST PUSH1 0x2 DUP3 DUP2 PUSH2 0x11C0 JUMPI INVALID JUMPDEST DIV SWAP2 POP DUP1 DUP1 PUSH1 0x1 ADD SWAP2 POP POP PUSH2 0xFF2 JUMP JUMPDEST POP PUSH1 0x2 DUP3 PUSH2 0x11DF PUSH1 0x20 SLOAD PUSH2 0x1314 JUMP JUMPDEST PUSH1 0x0 PUSH1 0x40 SHL PUSH1 0x40 MLOAD PUSH1 0x20 ADD DUP1 DUP5 DUP2 MSTORE PUSH1 0x20 ADD DUP4 DUP1 MLOAD SWAP1 PUSH1 0x20 ADD SWAP1 DUP1 DUP4 DUP4 JUMPDEST PUSH1 0x20 DUP4 LT PUSH2 0x1220 JUMPI DUP1 MLOAD DUP3 MSTORE PUSH1 0x20 DUP3 ADD SWAP2 POP PUSH1 0x20 DUP2 ADD SWAP1 POP PUSH1 0x20 DUP4 SUB SWAP3 POP PUSH2 0x11FD JUMP JUMPDEST PUSH1 0x1 DUP4 PUSH1 0x20 SUB PUSH2 0x100 EXP SUB DUP1 NOT DUP3 MLOAD AND DUP2 DUP5 MLOAD AND DUP1 DUP3 OR DUP6 MSTORE POP POP POP POP POP POP SWAP1 POP ADD DUP3 PUSH8 0xFFFFFFFFFFFFFFFF NOT AND PUSH8 0xFFFFFFFFFFFFFFFF NOT AND DUP2 MSTORE PUSH1 0x18 ADD SWAP4 POP POP POP POP PUSH1 0x40 MLOAD PUSH1 0x20 DUP2 DUP4 SUB SUB DUP2 MSTORE SWAP1 PUSH1 0x40 MSTORE PUSH1 0x40 MLOAD DUP1 DUP3 DUP1 MLOAD SWAP1 PUSH1 0x20 ADD SWAP1 DUP1 DUP4 DUP4 JUMPDEST PUSH1 0x20 DUP4 LT PUSH2 0x12A5 JUMPI DUP1 MLOAD DUP3 MSTORE PUSH1 0x20 DUP3 ADD SWAP2 POP PUSH1 0x20 DUP2 ADD SWAP1 POP PUSH1 0x20 DUP4 SUB SWAP3 POP PUSH2 0x1282 JUMP JUMPDEST PUSH1 0x1 DUP4 PUSH1 0x20 SUB PUSH2 0x100 EXP SUB DUP1 NOT DUP3 MLOAD AND DUP2 DUP5 MLOAD AND DUP1 DUP3 OR DUP6 MSTORE POP POP POP POP POP POP SWAP1 POP ADD SWAP2 POP POP PUSH1 0x20 PUSH1 0x40 MLOAD DUP1 DUP4 SUB DUP2 DUP6 GAS STATICCALL ISZERO DUP1 ISZERO PUSH2 0x12E7 JUMPI RETURNDATASIZE PUSH1 0x0 DUP1 RETURNDATACOPY RETURNDATASIZE PUSH1 0x0 REVERT JUMPDEST POP POP POP PUSH1 0x40 MLOAD RETURNDATASIZE PUSH1 0x20 DUP2 LT ISZERO PUSH2 0x12FC JUMPI PUSH1 0x0 DUP1 REVERT JUMPDEST DUP2 ADD SWAP1 DUP1 DUP1 MLOAD SWAP1 PUSH1 0x20 ADD SWAP1 SWAP3 SWAP2 SWAP1 POP POP POP SWAP3 POP POP POP SWAP1 JUMP JUMPDEST PUSH1 0x60 PUSH1 0x8 PUSH8 0xFFFFFFFFFFFFFFFF DUP2 GT DUP1 ISZERO PUSH2 0x132E JUMPI PUSH1 0x0 DUP1 REVERT JUMPDEST POP PUSH1 0x40 MLOAD SWAP1 DUP1 DUP3 MSTORE DUP1 PUSH1 0x1F ADD PUSH1 0x1F NOT AND PUSH1 0x20 ADD DUP3 ADD PUSH1 0x40 MSTORE DUP1 ISZERO PUSH2 0x1361 JUMPI DUP2 PUSH1 0x20 ADD PUSH1 0x1 DUP3 MUL DUP1 CALLDATASIZE DUP4 CALLDATACOPY DUP1 DUP3 ADD SWAP2 POP POP SWAP1 POP JUMPDEST POP SWAP1 POP PUSH1 0x0 DUP3 PUSH1 0xC0 SHL SWAP1 POP DUP1 PUSH1 0x7 PUSH1 0x8 DUP2 LT PUSH2 0x1379 JUMPI INVALID JUMPDEST BYTE PUSH1 0xF8 SHL DUP3 PUSH1 0x0 DUP2 MLOAD DUP2 LT PUSH2 0x138A JUMPI INVALID JUMPDEST PUSH1 0x20 ADD ADD SWAP1 PUSH31 0xFFFFFFFFFFFFFFFFFFFFFFFFFFFFFFFFFFFFFFFFFFFFFFFFFFFFFFFFFFFFFF NOT AND SWAP1 DUP2 PUSH1 0x0 BYTE SWAP1 MSTORE8 POP DUP1 PUSH1 0x6 PUSH1 0x8 DUP2 LT PUSH2 0x13C6 JUMPI INVALID JUMPDEST BYTE PUSH1 0xF8 SHL DUP3 PUSH1 0x1 DUP2 MLOAD DUP2 LT PUSH2 0x13D7 JUMPI INVALID JUMPDEST PUSH1 0x20 ADD ADD SWAP1 PUSH31 0xFFFFFFFFFFFFFFFFFFFFFFFFFFFFFFFFFFFFFFFFFFFFFFFFFFFFFFFFFFFFFF NOT AND SWAP1 DUP2 PUSH1 0x0 BYTE SWAP1 MSTORE8 POP DUP1 PUSH1 0x5 PUSH1 0x8 DUP2 LT PUSH2 0x1413 JUMPI INVALID JUMPDEST BYTE PUSH1 0xF8 SHL DUP3 PUSH1 0x2 DUP2 MLOAD DUP2 LT PUSH2 0x1424 JUMPI INVALID JUMPDEST PUSH1 0x20 ADD ADD SWAP1 PUSH31 0xFFFFFFFFFFFFFFFFFFFFFFFFFFFFFFFFFFFFFFFFFFFFFFFFFFFFFFFFFFFFFF NOT AND SWAP1 DUP2 PUSH1 0x0 BYTE SWAP1 MSTORE8 POP DUP1 PUSH1 0x4 PUSH1 0x8 DUP2 LT PUSH2 0x1460 JUMPI INVALID JUMPDEST BYTE PUSH1 0xF8 SHL DUP3 PUSH1 0x3 DUP2 MLOAD DUP2 LT PUSH2 0x1471 JUMPI INVALID JUMPDEST PUSH1 0x20 ADD ADD SWAP1 PUSH31 0xFFFFFFFFFFFFFFFFFFFFFFFFFFFFFFFFFFFFFFFFFFFFFFFFFFFFFFFFFFFFFF NOT AND SWAP1 DUP2 PUSH1 0x0 BYTE SWAP1 MSTORE8 POP DUP1 PUSH1 0x3 PUSH1 0x8 DUP2 LT PUSH2 0x14AD JUMPI INVALID JUMPDEST BYTE PUSH1 0xF8 SHL DUP3 PUSH1 0x4 DUP2 MLOAD DUP2 LT PUSH2 0x14BE JUMPI INVALID JUMPDEST PUSH1 0x20 ADD ADD SWAP1 PUSH31 0xFFFFFFFFFFFFFFFFFFFFFFFFFFFFFFFFFFFFFFFFFFFFFFFFFFFFFFFFFFFFFF NOT AND SWAP1 DUP2 PUSH1 0x0 BYTE SWAP1 MSTORE8 POP DUP1 PUSH1 0x2 PUSH1 0x8 DUP2 LT PUSH2 0x14FA JUMPI INVALID JUMPDEST BYTE PUSH1 0xF8 SHL DUP3 PUSH1 0x5 DUP2 MLOAD DUP2 LT PUSH2 0x150B JUMPI INVALID JUMPDEST PUSH1 0x20 ADD ADD SWAP1 PUSH31 0xFFFFFFFFFFFFFFFFFFFFFFFFFFFFFFFFFFFFFFFFFFFFFFFFFFFFFFFFFFFFFF NOT AND SWAP1 DUP2 PUSH1 0x0 BYTE SWAP1 MSTORE8 POP DUP1 PUSH1 0x1 PUSH1 0x8 DUP2 LT PUSH2 0x1547 JUMPI INVALID JUMPDEST BYTE PUSH1 0xF8 SHL DUP3 PUSH1 0x6 DUP2 MLOAD DUP2 LT PUSH2 0x1558 JUMPI INVALID JUMPDEST PUSH1 0x20 ADD ADD SWAP1 PUSH31 0xFFFFFFFFFFFFFFFFFFFFFFFFFFFFFFFFFFFFFFFFFFFFFFFFFFFFFFFFFFFFFF NOT AND SWAP1 DUP2 PUSH1 0x0 BYTE SWAP1 MSTORE8 POP DUP1 PUSH1 0x0 PUSH1 0x8 DUP2 LT PUSH2 0x1594 JUMPI INVALID JUMPDEST BYTE PUSH1 0xF8 SHL DUP3 PUSH1 0x7 DUP2 MLOAD DUP2 LT PUSH2 0x15A5 JUMPI INVALID JUMPDEST PUSH1 0x20 ADD ADD SWAP1 PUSH31 0xFFFFFFFFFFFFFFFFFFFFFFFFFFFFFFFFFFFFFFFFFFFFFFFFFFFFFFFFFFFFFF NOT AND SWAP1 DUP2 PUSH1 0x0 BYTE SWAP1 MSTORE8 POP POP SWAP2 SWAP1 POP JUMP JUMPDEST PUSH1 0x0 DUP1 DUP6 DUP6 GT ISZERO PUSH2 0x15EA JUMPI PUSH1 0x0 DUP1 REVERT JUMPDEST DUP4 DUP7 GT ISZERO PUSH2 0x15F7 JUMPI PUSH1 0x0 DUP1 REVERT JUMPDEST PUSH1 0x1 DUP6 MUL DUP4 ADD SWAP2 POP DUP5 DUP7 SUB SWAP1 POP SWAP5 POP SWAP5 SWAP3 POP POP POP JUMP INVALID DIFFICULTY PUSH6 0x706F73697443 PUSH16 0x6E74726163743A206D65726B6C652074 PUSH19 0x65652066756C6C4465706F736974436F6E7472 PUSH2 0x6374 GASPRICE KECCAK256 PUSH19 0x65636F6E7374727563746564204465706F7369 PUSH21 0x4461746120646F6573206E6F74206D617463682073 PUSH22 0x70706C696564206465706F7369745F646174615F726F PUSH16 0x744465706F736974436F6E7472616374 GASPRICE KECCAK256 PUSH10 0x6E76616C696420776974 PUSH9 0x64726177616C5F6372 PUSH6 0x64656E746961 PUSH13 0x73206C656E6774684465706F73 PUSH10 0x74436F6E74726163743A KECCAK256 PUSH5 0x65706F7369 PUSH21 0x2076616C7565206E6F74206D756C7469706C65206F PUSH7 0x20677765694465 PUSH17 0x6F736974436F6E74726163743A20696E76 PUSH2 0x6C69 PUSH5 0x207075626B PUSH6 0x79206C656E67 PUSH21 0x684465706F736974436F6E74726163743A20646570 PUSH16 0x7369742076616C756520746F6F206869 PUSH8 0x684465706F736974 NUMBER PUSH16 0x6E74726163743A206465706F73697420 PUSH23 0x616C756520746F6F206C6F774465706F736974436F6E74 PUSH19 0x6163743A20696E76616C6964207369676E6174 PUSH22 0x7265206C656E677468A2646970667358221220CD671C STOP 0xCD 0xBB SWAP13 0xF9 TIMESTAMP 0xC9 0x22 0x5D SWAP6 0x49 0xD0 0x21 CODESIZE 0xD1 0x2E TIMESTAMP 0xEC MSTORE CODECOPY SLT 0x48 0x4F 0xAD DUP10 PUSH12 0x1577E964736F6C634300060B STOP CALLER "
				},
				"gasEstimates": {
					"creation": {
						"codeDepositCost": "1215400",
						"executionCost": "infinite",
						"totalCost": "infinite"
					},
					"external": {
						"deposit(bytes,bytes,bytes,bytes32)": "infinite",
						"get_deposit_count()": "infinite",
						"get_deposit_root()": "infinite",
						"supportsInterface(bytes4)": "369"
					},
					"internal": {
						"to_little_endian_64(uint64)": "infinite"
					}
				},
				"methodIdentifiers": {
					"deposit(bytes,bytes,bytes,bytes32)": "22895118",
					"get_deposit_count()": "621fd130",
					"get_deposit_root()": "c5f2892f",
					"supportsInterface(bytes4)": "01ffc9a7"
				}
			},
			"storageLayout": {
				"storage": [
					{
						"astId": 68,
						"contract": "tenderly/bitcoincobra/tenderly/bitcoincobra/tenderly/project/Documents/DepositContract.sol:DepositContract",
						"label": "branch",
						"offset": 0,
						"slot": "0",
						"type": "t_array(t_bytes32)32_storage"
					},
					{
						"astId": 70,
						"contract": "tenderly/bitcoincobra/tenderly/bitcoincobra/tenderly/project/Documents/DepositContract.sol:DepositContract",
						"label": "deposit_count",
						"offset": 0,
						"slot": "32",
						"type": "t_uint256"
					},
					{
						"astId": 74,
						"contract": "tenderly/bitcoincobra/tenderly/bitcoincobra/tenderly/project/Documents/DepositContract.sol:DepositContract",
						"label": "zero_hashes",
						"offset": 0,
						"slot": "33",
						"type": "t_array(t_bytes32)32_storage"
					}
				],
				"types": {
					"t_array(t_bytes32)32_storage": {
						"base": "t_bytes32",
						"encoding": "inplace",
						"label": "bytes32[32]",
						"numberOfBytes": "1024"
					},
					"t_bytes32": {
						"encoding": "inplace",
						"label": "bytes32",
						"numberOfBytes": "32"
					},
					"t_uint256": {
						"encoding": "inplace",
						"label": "uint256",
						"numberOfBytes": "32"
					}
				}
			},
			"userdoc": {
				"events": {
					"DepositEvent(bytes,bytes,bytes,bytes,bytes)": {
						"notice": "A processed deposit event."
					}
				},
				"kind": "user",
				"methods": {
					"deposit(bytes,bytes,bytes,bytes32)": {
						"notice": "Submit a Phase 0 DepositData object."
					},
					"get_deposit_count()": {
						"notice": "Query the current deposit count."
					},
					"get_deposit_root()": {
						"notice": "Query the current deposit root hash."
					},
					"supportsInterface(bytes4)": {
						"notice": "Query if a contract implements an interface"
					}
				},
				"notice": "This is the Ethereum 2.0 deposit contract interface. For more information see the Phase 0 specification under https://github.com/ethereum/eth2.0-specs",
				"version": 1
			}
		}
	}
}